{
  "contractName": "Kyc",
  "abi": [
    {
      "inputs": [],
      "payable": false,
      "stateMutability": "nonpayable",
      "type": "constructor",
      "signature": "constructor"
    },
    {
      "constant": true,
      "inputs": [
        {
          "name": "_id",
          "type": "string"
        }
      ],
      "name": "getVerfierForUser",
      "outputs": [
        {
          "name": "",
          "type": "string"
        }
      ],
      "payable": false,
      "stateMutability": "view",
      "type": "function",
      "signature": "0xb8a3c4ab"
    },
    {
      "constant": false,
      "inputs": [
        {
          "name": "_bankName",
          "type": "string"
        },
        {
          "name": "_publicKey",
          "type": "string"
        }
      ],
      "name": "addVerifier",
      "outputs": [],
      "payable": false,
      "stateMutability": "nonpayable",
      "type": "function",
      "signature": "0xc48ecd8e"
    },
    {
      "constant": false,
      "inputs": [
        {
          "name": "_id",
          "type": "string"
        },
        {
          "name": "_signature",
          "type": "string"
        },
        {
          "name": "_mobileHash",
          "type": "string"
        },
        {
          "name": "_verifierKey",
          "type": "string"
        }
      ],
      "name": "addUser",
      "outputs": [],
      "payable": false,
      "stateMutability": "nonpayable",
      "type": "function",
      "signature": "0x01cda3ac"
    },
    {
      "constant": true,
      "inputs": [
        {
          "name": "_id",
          "type": "string"
        }
      ],
      "name": "getUserSignature",
      "outputs": [
        {
          "name": "",
          "type": "string"
        }
      ],
      "payable": false,
      "stateMutability": "view",
      "type": "function",
      "signature": "0x9f9615b6"
    },
    {
      "constant": true,
      "inputs": [
        {
          "name": "_id",
          "type": "string"
        }
      ],
      "name": "getUserMobileHash",
      "outputs": [
        {
          "name": "",
          "type": "string"
        }
      ],
      "payable": false,
      "stateMutability": "view",
      "type": "function",
      "signature": "0x131a8621"
    }
  ],
  "bytecode": "0x608060405234801561001057600080fd5b50336000806101000a81548173ffffffffffffffffffffffffffffffffffffffff021916908373ffffffffffffffffffffffffffffffffffffffff160217905550611585806100606000396000f3fe60806040526004361061006d576000357c0100000000000000000000000000000000000000000000000000000000900463ffffffff16806301cda3ac14610072578063131a8621146102ff5780639f9615b614610440578063b8a3c4ab14610581578063c48ecd8e146106c2575b600080fd5b34801561007e57600080fd5b506102fd6004803603608081101561009557600080fd5b81019080803590602001906401000000008111156100b257600080fd5b8201836020820111156100c457600080fd5b803590602001918460018302840111640100000000831117156100e657600080fd5b91908080601f016020809104026020016040519081016040528093929190818152602001838380828437600081840152601f19601f8201169050808301925050505050505091929192908035906020019064010000000081111561014957600080fd5b82018360208201111561015b57600080fd5b8035906020019184600183028401116401000000008311171561017d57600080fd5b91908080601f016020809104026020016040519081016040528093929190818152602001838380828437600081840152601f19601f820116905080830192505050505050509192919290803590602001906401000000008111156101e057600080fd5b8201836020820111156101f257600080fd5b8035906020019184600183028401116401000000008311171561021457600080fd5b91908080601f016020809104026020016040519081016040528093929190818152602001838380828437600081840152601f19601f8201169050808301925050505050505091929192908035906020019064010000000081111561027757600080fd5b82018360208201111561028957600080fd5b803590602001918460018302840111640100000000831117156102ab57600080fd5b91908080601f016020809104026020016040519081016040528093929190818152602001838380828437600081840152601f19601f820116905080830192505050505050509192919290505050610821565b005b34801561030b57600080fd5b506103c56004803603602081101561032257600080fd5b810190808035906020019064010000000081111561033f57600080fd5b82018360208201111561035157600080fd5b8035906020019184600183028401116401000000008311171561037357600080fd5b91908080601f016020809104026020016040519081016040528093929190818152602001838380828437600081840152601f19601f820116905080830192505050505050509192919290505050610b7c565b6040518080602001828103825283818151815260200191508051906020019080838360005b838110156104055780820151818401526020810190506103ea565b50505050905090810190601f1680156104325780820380516001836020036101000a031916815260200191505b509250505060405180910390f35b34801561044c57600080fd5b506105066004803603602081101561046357600080fd5b810190808035906020019064010000000081111561048057600080fd5b82018360208201111561049257600080fd5b803590602001918460018302840111640100000000831117156104b457600080fd5b91908080601f016020809104026020016040519081016040528093929190818152602001838380828437600081840152601f19601f820116905080830192505050505050509192919290505050610d83565b6040518080602001828103825283818151815260200191508051906020019080838360005b8381101561054657808201518184015260208101905061052b565b50505050905090810190601f1680156105735780820380516001836020036101000a031916815260200191505b509250505060405180910390f35b34801561058d57600080fd5b50610647600480360360208110156105a457600080fd5b81019080803590602001906401000000008111156105c157600080fd5b8201836020820111156105d357600080fd5b803590602001918460018302840111640100000000831117156105f557600080fd5b91908080601f016020809104026020016040519081016040528093929190818152602001838380828437600081840152601f19601f820116905080830192505050505050509192919290505050610f8a565b6040518080602001828103825283818151815260200191508051906020019080838360005b8381101561068757808201518184015260208101905061066c565b50505050905090810190601f1680156106b45780820380516001836020036101000a031916815260200191505b509250505060405180910390f35b3480156106ce57600080fd5b5061081f600480360360408110156106e557600080fd5b810190808035906020019064010000000081111561070257600080fd5b82018360208201111561071457600080fd5b8035906020019184600183028401116401000000008311171561073657600080fd5b91908080601f016020809104026020016040519081016040528093929190818152602001838380828437600081840152601f19601f8201169050808301925050505050505091929192908035906020019064010000000081111561079957600080fd5b8201836020820111156107ab57600080fd5b803590602001918460018302840111640100000000831117156107cd57600080fd5b91908080601f016020809104026020016040519081016040528093929190818152602001838380828437600081840152601f19601f82011690508083019250505050505050919291929050505061118e565b005b600015156003856040518082805190602001908083835b60208310151561085d5780518252602082019150602081019050602083039250610838565b6001836020036101000a038019825116818451168082178552505050505050905001915050908152602001604051809103902060000160009054906101000a900460ff161515141515610918576040517f08c379a00000000000000000000000000000000000000000000000000000000081526004018080602001828103825260128152602001807f5573657220616c7265616479206578697374000000000000000000000000000081525060200191505060405180910390fd5b606060405190810160405280600115158152602001848152602001838152506003856040518082805190602001908083835b60208310151561096f578051825260208201915060208101905060208303925061094a565b6001836020036101000a038019825116818451168082178552505050505050905001915050908152602001604051809103902060008201518160000160006101000a81548160ff02191690831515021790555060208201518160010190805190602001906109de929190611434565b5060408201518160020190805190602001906109fb929190611434565b50905050600115156001826040518082805190602001908083835b602083101515610a3b5780518252602082019150602081019050602083039250610a16565b6001836020036101000a038019825116818451168082178552505050505050905001915050908152602001604051809103902060000160009054906101000a900460ff161515141515610af6576040517f08c379a00000000000000000000000000000000000000000000000000000000081526004018080602001828103825260158152602001807f556e617574686f72697a6564207665726966696572000000000000000000000081525060200191505060405180910390fd5b806002856040518082805190602001908083835b602083101515610b2f5780518252602082019150602081019050602083039250610b0a565b6001836020036101000a03801982511681845116808217855250505050505090500191505090815260200160405180910390209080519060200190610b759291906114b4565b5050505050565b6060600115156003836040518082805190602001908083835b602083101515610bba5780518252602082019150602081019050602083039250610b95565b6001836020036101000a038019825116818451168082178552505050505050905001915050908152602001604051809103902060000160009054906101000a900460ff161515141515610c75576040517f08c379a00000000000000000000000000000000000000000000000000000000081526004018080602001828103825260138152602001807f5573657220646f6573206e6f742065786973740000000000000000000000000081525060200191505060405180910390fd5b6003826040518082805190602001908083835b602083101515610cad5780518252602082019150602081019050602083039250610c88565b6001836020036101000a03801982511681845116808217855250505050505090500191505090815260200160405180910390206002018054600181600116156101000203166002900480601f016020809104026020016040519081016040528092919081815260200182805460018160011615610100020316600290048015610d775780601f10610d4c57610100808354040283529160200191610d77565b820191906000526020600020905b815481529060010190602001808311610d5a57829003601f168201915b50505050509050919050565b6060600115156003836040518082805190602001908083835b602083101515610dc15780518252602082019150602081019050602083039250610d9c565b6001836020036101000a038019825116818451168082178552505050505050905001915050908152602001604051809103902060000160009054906101000a900460ff161515141515610e7c576040517f08c379a00000000000000000000000000000000000000000000000000000000081526004018080602001828103825260138152602001807f5573657220646f6573206e6f742065786973740000000000000000000000000081525060200191505060405180910390fd5b6003826040518082805190602001908083835b602083101515610eb45780518252602082019150602081019050602083039250610e8f565b6001836020036101000a03801982511681845116808217855250505050505090500191505090815260200160405180910390206001018054600181600116156101000203166002900480601f016020809104026020016040519081016040528092919081815260200182805460018160011615610100020316600290048015610f7e5780601f10610f5357610100808354040283529160200191610f7e565b820191906000526020600020905b815481529060010190602001808311610f6157829003601f168201915b50505050509050919050565b6060600115156003836040518082805190602001908083835b602083101515610fc85780518252602082019150602081019050602083039250610fa3565b6001836020036101000a038019825116818451168082178552505050505050905001915050908152602001604051809103902060000160009054906101000a900460ff161515141515611083576040517f08c379a00000000000000000000000000000000000000000000000000000000081526004018080602001828103825260138152602001807f5573657220646f6573206e6f742065786973740000000000000000000000000081525060200191505060405180910390fd5b6002826040518082805190602001908083835b6020831015156110bb5780518252602082019150602081019050602083039250611096565b6001836020036101000a03801982511681845116808217855250505050505090500191505090815260200160405180910390208054600181600116156101000203166002900480601f0160208091040260200160405190810160405280929190818152602001828054600181600116156101000203166002900480156111825780601f1061115757610100808354040283529160200191611182565b820191906000526020600020905b81548152906001019060200180831161116557829003601f168201915b50505050509050919050565b6000809054906101000a900473ffffffffffffffffffffffffffffffffffffffff1673ffffffffffffffffffffffffffffffffffffffff163373ffffffffffffffffffffffffffffffffffffffff16141515611252576040517f08c379a000000000000000000000000000000000000000000000000000000000815260040180806020018281038252600c8152602001807f556e617574686f72697a6564000000000000000000000000000000000000000081525060200191505060405180910390fd5b600015156001826040518082805190602001908083835b60208310151561128e5780518252602082019150602081019050602083039250611269565b6001836020036101000a038019825116818451168082178552505050505050905001915050908152602001604051809103902060000160009054906101000a900460ff161515141515611349576040517f08c379a00000000000000000000000000000000000000000000000000000000081526004018080602001828103825260178152602001807f566572696669657220616c72656164792065786973747300000000000000000081525060200191505060405180910390fd5b606060405190810160405280600115158152602001838152602001828152506001826040518082805190602001908083835b6020831015156113a0578051825260208201915060208101905060208303925061137b565b6001836020036101000a038019825116818451168082178552505050505050905001915050908152602001604051809103902060008201518160000160006101000a81548160ff021916908315150217905550602082015181600101908051906020019061140f929190611434565b50604082015181600201908051906020019061142c929190611434565b509050505050565b828054600181600116156101000203166002900490600052602060002090601f016020900481019282601f1061147557805160ff19168380011785556114a3565b828001600101855582156114a3579182015b828111156114a2578251825591602001919060010190611487565b5b5090506114b09190611534565b5090565b828054600181600116156101000203166002900490600052602060002090601f016020900481019282601f106114f557805160ff1916838001178555611523565b82800160010185558215611523579182015b82811115611522578251825591602001919060010190611507565b5b5090506115309190611534565b5090565b61155691905b8082111561155257600081600090555060010161153a565b5090565b9056fea165627a7a723058203caf92be58d0d8e9d2aec0526e6d4a6c927d51d3c37da120d50ba2699483d06a0029",
  "source": "pragma solidity >=0.4.21 <0.6.0;\n\ncontract Kyc {\n\n    address owner;\n\n    constructor() public {\n        owner = msg.sender;\n    }\n\n    struct User {\n        bool present;\n        string signature;\n        string mobileHash;\n    }\n\n    struct Verifier{\n        bool present;\n        string bank;\n        string publicKey;\n    }\n\n    //To store verifier data with key : publickey\n    mapping(string => Verifier) Verifiers;\n\n    //From User's unique ID -> Verifier\n    mapping(string => string) linkedVerifiers;\n\n    //For User Data\n    mapping(string => User) Users;\n\n    function getVerfierForUser(string memory _id) public view returns (string memory){\n        require(Users[_id].present == true, \"User does not exist\");\n        return (linkedVerifiers[_id]);\n    }\n\n    function addVerifier(string memory _bankName, string memory _publicKey) public {\n        require(msg.sender == owner,\"Unauthorized\");\n        require(Verifiers[_publicKey].present == false, \"Verifier already exists\");\n        Verifiers[_publicKey] = Verifier(true, _bankName, _publicKey);\n    }\n\n\n    function addUser(string memory _id,\n                    string memory _signature,\n                    string memory _mobileHash,\n                    string memory _verifierKey) public {\n        require(\n            Users[_id].present == false,\n            \"User already exist\"\n         );\n\n        Users[_id] = User(true, _signature, _mobileHash);\n        require(Verifiers[_verifierKey].present == true, \"Unauthorized verifier\");\n        linkedVerifiers[_id] = _verifierKey;\n    }\n\n    function getUserSignature(string memory _id) public view returns (string memory) {\n        require(Users[_id].present == true, \"User does not exist\");\n\n        return(Users[_id].signature);\n    }\n\n    function getUserMobileHash(string memory _id) public view returns (string memory) {\n        require(Users[_id].present == true, \"User does not exist\");\n\n        return (Users[_id].mobileHash);\n    }\n}",
  "sourcePath": "/home/sushant/major/E-KYC/src/contracts/Kyc.sol",
  "compiler": {
    "name": "solc",
    "version": "0.5.0+commit.1d4f565a.Emscripten.clang"
  },
  "schemaVersion": "3.0.2",
  "updatedAt": "2020-04-16T07:14:54.195Z",
  "devdoc": {
    "methods": {}
  },
  "userdoc": {
    "methods": {}
  }
}