{
  "contractName": "Kyc",
  "abi": [
    {
      "inputs": [],
      "payable": false,
      "stateMutability": "nonpayable",
      "type": "constructor",
      "signature": "constructor"
    },
    {
      "constant": true,
      "inputs": [],
      "name": "getUnverifiedVerifiers",
      "outputs": [
        {
          "name": "",
          "type": "address[]"
        }
      ],
      "payable": false,
      "stateMutability": "view",
      "type": "function",
      "signature": "0xceee2d4a"
    },
    {
      "constant": true,
      "inputs": [
        {
          "name": "verifierAddress",
          "type": "address"
        }
      ],
      "name": "getVerifier",
      "outputs": [
        {
          "name": "",
          "type": "string"
        }
      ],
      "payable": false,
      "stateMutability": "view",
      "type": "function",
      "signature": "0x059ce95d"
    },
    {
      "constant": true,
      "inputs": [
        {
          "name": "_id",
          "type": "string"
        }
      ],
      "name": "getVerifierForUser",
      "outputs": [
        {
          "name": "",
          "type": "string"
        }
      ],
      "payable": false,
      "stateMutability": "view",
      "type": "function",
      "signature": "0xd6ffb379"
    },
    {
      "constant": false,
      "inputs": [
        {
          "name": "bankName",
          "type": "string"
        },
        {
          "name": "verifierAddress",
          "type": "address"
        },
        {
          "name": "publicKey",
          "type": "string"
        }
      ],
      "name": "addVerifier",
      "outputs": [],
      "payable": false,
      "stateMutability": "nonpayable",
      "type": "function",
      "signature": "0x9111dab5"
    },
    {
      "constant": true,
      "inputs": [
        {
          "name": "verifierAddress",
          "type": "address"
        }
      ],
      "name": "getPublicKey",
      "outputs": [
        {
          "name": "",
          "type": "string"
        }
      ],
      "payable": false,
      "stateMutability": "view",
      "type": "function",
      "signature": "0x857cdbb8"
    },
    {
      "constant": false,
      "inputs": [
        {
          "name": "_id",
          "type": "string"
        },
        {
          "name": "_signature",
          "type": "string"
        },
        {
          "name": "_mobileHash",
          "type": "string"
        },
        {
          "name": "verifierAddress",
          "type": "address"
        }
      ],
      "name": "addUser",
      "outputs": [],
      "payable": false,
      "stateMutability": "nonpayable",
      "type": "function",
      "signature": "0xb48ff0f1"
    },
    {
      "constant": true,
      "inputs": [
        {
          "name": "_id",
          "type": "string"
        }
      ],
      "name": "getUserSignature",
      "outputs": [
        {
          "name": "",
          "type": "string"
        }
      ],
      "payable": false,
      "stateMutability": "view",
      "type": "function",
      "signature": "0x9f9615b6"
    },
    {
      "constant": true,
      "inputs": [
        {
          "name": "_id",
          "type": "string"
        }
      ],
      "name": "getUserMobileHash",
      "outputs": [
        {
          "name": "",
          "type": "string"
        }
      ],
      "payable": false,
      "stateMutability": "view",
      "type": "function",
      "signature": "0x131a8621"
    }
  ],
  "bytecode": "0x608060405234801561001057600080fd5b50336000806101000a81548173ffffffffffffffffffffffffffffffffffffffff021916908373ffffffffffffffffffffffffffffffffffffffff160217905550611a7d806100606000396000f3fe60806040526004361061008e576000357c0100000000000000000000000000000000000000000000000000000000900463ffffffff168063059ce95d14610093578063131a86211461015d578063857cdbb81461029e5780639111dab5146103685780639f9615b6146104e7578063b48ff0f114610628578063ceee2d4a1461083e578063d6ffb379146108aa575b600080fd5b34801561009f57600080fd5b506100e2600480360360208110156100b657600080fd5b81019080803573ffffffffffffffffffffffffffffffffffffffff1690602001909291905050506109eb565b6040518080602001828103825283818151815260200191508051906020019080838360005b83811015610122578082015181840152602081019050610107565b50505050905090810190601f16801561014f5780820380516001836020036101000a031916815260200191505b509250505060405180910390f35b34801561016957600080fd5b506102236004803603602081101561018057600080fd5b810190808035906020019064010000000081111561019d57600080fd5b8201836020820111156101af57600080fd5b803590602001918460018302840111640100000000831117156101d157600080fd5b91908080601f016020809104026020016040519081016040528093929190818152602001838380828437600081840152601f19601f820116905080830192505050505050509192919290505050610acf565b6040518080602001828103825283818151815260200191508051906020019080838360005b83811015610263578082015181840152602081019050610248565b50505050905090810190601f1680156102905780820380516001836020036101000a031916815260200191505b509250505060405180910390f35b3480156102aa57600080fd5b506102ed600480360360208110156102c157600080fd5b81019080803573ffffffffffffffffffffffffffffffffffffffff169060200190929190505050610cd6565b6040518080602001828103825283818151815260200191508051906020019080838360005b8381101561032d578082015181840152602081019050610312565b50505050905090810190601f16801561035a5780820380516001836020036101000a031916815260200191505b509250505060405180910390f35b34801561037457600080fd5b506104e56004803603606081101561038b57600080fd5b81019080803590602001906401000000008111156103a857600080fd5b8201836020820111156103ba57600080fd5b803590602001918460018302840111640100000000831117156103dc57600080fd5b91908080601f016020809104026020016040519081016040528093929190818152602001838380828437600081840152601f19601f820116905080830192505050505050509192919290803573ffffffffffffffffffffffffffffffffffffffff1690602001909291908035906020019064010000000081111561045f57600080fd5b82018360208201111561047157600080fd5b8035906020019184600183028401116401000000008311171561049357600080fd5b91908080601f016020809104026020016040519081016040528093929190818152602001838380828437600081840152601f19601f820116905080830192505050505050509192919290505050610dba565b005b3480156104f357600080fd5b506105ad6004803603602081101561050a57600080fd5b810190808035906020019064010000000081111561052757600080fd5b82018360208201111561053957600080fd5b8035906020019184600183028401116401000000008311171561055b57600080fd5b91908080601f016020809104026020016040519081016040528093929190818152602001838380828437600081840152601f19601f820116905080830192505050505050509192919290505050611098565b6040518080602001828103825283818151815260200191508051906020019080838360005b838110156105ed5780820151818401526020810190506105d2565b50505050905090810190601f16801561061a5780820380516001836020036101000a031916815260200191505b509250505060405180910390f35b34801561063457600080fd5b5061083c6004803603608081101561064b57600080fd5b810190808035906020019064010000000081111561066857600080fd5b82018360208201111561067a57600080fd5b8035906020019184600183028401116401000000008311171561069c57600080fd5b91908080601f016020809104026020016040519081016040528093929190818152602001838380828437600081840152601f19601f820116905080830192505050505050509192919290803590602001906401000000008111156106ff57600080fd5b82018360208201111561071157600080fd5b8035906020019184600183028401116401000000008311171561073357600080fd5b91908080601f016020809104026020016040519081016040528093929190818152602001838380828437600081840152601f19601f8201169050808301925050505050505091929192908035906020019064010000000081111561079657600080fd5b8201836020820111156107a857600080fd5b803590602001918460018302840111640100000000831117156107ca57600080fd5b91908080601f016020809104026020016040519081016040528093929190818152602001838380828437600081840152601f19601f820116905080830192505050505050509192919290803573ffffffffffffffffffffffffffffffffffffffff16906020019092919050505061129f565b005b34801561084a57600080fd5b506108536115d6565b6040518080602001828103825283818151815260200191508051906020019060200280838360005b8381101561089657808201518184015260208101905061087b565b505050509050019250505060405180910390f35b3480156108b657600080fd5b50610970600480360360208110156108cd57600080fd5b81019080803590602001906401000000008111156108ea57600080fd5b8201836020820111156108fc57600080fd5b8035906020019184600183028401116401000000008311171561091e57600080fd5b91908080601f016020809104026020016040519081016040528093929190818152602001838380828437600081840152601f19601f820116905080830192505050505050509192919290505050611728565b6040518080602001828103825283818151815260200191508051906020019080838360005b838110156109b0578082015181840152602081019050610995565b50505050905090810190601f1680156109dd5780820380516001836020036101000a031916815260200191505b509250505060405180910390f35b6060600260008373ffffffffffffffffffffffffffffffffffffffff1673ffffffffffffffffffffffffffffffffffffffff1681526020019081526020016000206001018054600181600116156101000203166002900480601f016020809104026020016040519081016040528092919081815260200182805460018160011615610100020316600290048015610ac35780601f10610a9857610100808354040283529160200191610ac3565b820191906000526020600020905b815481529060010190602001808311610aa657829003601f168201915b50505050509050919050565b6060600115156004836040518082805190602001908083835b602083101515610b0d5780518252602082019150602081019050602083039250610ae8565b6001836020036101000a038019825116818451168082178552505050505050905001915050908152602001604051809103902060000160009054906101000a900460ff161515141515610bc8576040517f08c379a00000000000000000000000000000000000000000000000000000000081526004018080602001828103825260138152602001807f5573657220646f6573206e6f742065786973740000000000000000000000000081525060200191505060405180910390fd5b6004826040518082805190602001908083835b602083101515610c005780518252602082019150602081019050602083039250610bdb565b6001836020036101000a03801982511681845116808217855250505050505090500191505090815260200160405180910390206002018054600181600116156101000203166002900480601f016020809104026020016040519081016040528092919081815260200182805460018160011615610100020316600290048015610cca5780601f10610c9f57610100808354040283529160200191610cca565b820191906000526020600020905b815481529060010190602001808311610cad57829003601f168201915b50505050509050919050565b6060600260008373ffffffffffffffffffffffffffffffffffffffff1673ffffffffffffffffffffffffffffffffffffffff1681526020019081526020016000206002018054600181600116156101000203166002900480601f016020809104026020016040519081016040528092919081815260200182805460018160011615610100020316600290048015610dae5780601f10610d8357610100808354040283529160200191610dae565b820191906000526020600020905b815481529060010190602001808311610d9157829003601f168201915b50505050509050919050565b6000809054906101000a900473ffffffffffffffffffffffffffffffffffffffff1673ffffffffffffffffffffffffffffffffffffffff163373ffffffffffffffffffffffffffffffffffffffff16141515610e7e576040517f08c379a000000000000000000000000000000000000000000000000000000000815260040180806020018281038252600c8152602001807f556e617574686f72697a6564000000000000000000000000000000000000000081525060200191505060405180910390fd5b60001515600260008473ffffffffffffffffffffffffffffffffffffffff1673ffffffffffffffffffffffffffffffffffffffff16815260200190815260200160002060000160009054906101000a900460ff161515141515610f49576040517f08c379a00000000000000000000000000000000000000000000000000000000081526004018080602001828103825260178152602001807f566572696669657220616c72656164792065786973747300000000000000000081525060200191505060405180910390fd5b60018290806001815401808255809150509060018203906000526020600020016000909192909190916101000a81548173ffffffffffffffffffffffffffffffffffffffff021916908373ffffffffffffffffffffffffffffffffffffffff1602179055505060806040519081016040528060011515815260200160001515815260200184815260200182815250600260008473ffffffffffffffffffffffffffffffffffffffff1673ffffffffffffffffffffffffffffffffffffffff16815260200190815260200160002060008201518160000160006101000a81548160ff02191690831515021790555060208201518160000160016101000a81548160ff021916908315150217905550604082015181600101908051906020019061107292919061192c565b50606082015181600201908051906020019061108f92919061192c565b50905050505050565b6060600115156004836040518082805190602001908083835b6020831015156110d657805182526020820191506020810190506020830392506110b1565b6001836020036101000a038019825116818451168082178552505050505050905001915050908152602001604051809103902060000160009054906101000a900460ff161515141515611191576040517f08c379a00000000000000000000000000000000000000000000000000000000081526004018080602001828103825260138152602001807f5573657220646f6573206e6f742065786973740000000000000000000000000081525060200191505060405180910390fd5b6004826040518082805190602001908083835b6020831015156111c957805182526020820191506020810190506020830392506111a4565b6001836020036101000a03801982511681845116808217855250505050505090500191505090815260200160405180910390206001018054600181600116156101000203166002900480601f0160208091040260200160405190810160405280929190818152602001828054600181600116156101000203166002900480156112935780601f1061126857610100808354040283529160200191611293565b820191906000526020600020905b81548152906001019060200180831161127657829003601f168201915b50505050509050919050565b600015156004856040518082805190602001908083835b6020831015156112db57805182526020820191506020810190506020830392506112b6565b6001836020036101000a038019825116818451168082178552505050505050905001915050908152602001604051809103902060000160009054906101000a900460ff161515141515611396576040517f08c379a00000000000000000000000000000000000000000000000000000000081526004018080602001828103825260128152602001807f5573657220616c7265616479206578697374000000000000000000000000000081525060200191505060405180910390fd5b606060405190810160405280600115158152602001848152602001838152506004856040518082805190602001908083835b6020831015156113ed57805182526020820191506020810190506020830392506113c8565b6001836020036101000a038019825116818451168082178552505050505050905001915050908152602001604051809103902060008201518160000160006101000a81548160ff021916908315150217905550602082015181600101908051906020019061145c92919061192c565b50604082015181600201908051906020019061147992919061192c565b5090505060011515600260008373ffffffffffffffffffffffffffffffffffffffff1673ffffffffffffffffffffffffffffffffffffffff16815260200190815260200160002060000160009054906101000a900460ff161515141515611548576040517f08c379a00000000000000000000000000000000000000000000000000000000081526004018080602001828103825260158152602001807f556e617574686f72697a6564207665726966696572000000000000000000000081525060200191505060405180910390fd5b61155181610cd6565b6003856040518082805190602001908083835b6020831015156115895780518252602082019150602081019050602083039250611564565b6001836020036101000a038019825116818451168082178552505050505050905001915050908152602001604051809103902090805190602001906115cf9291906119ac565b5050505050565b60606000809054906101000a900473ffffffffffffffffffffffffffffffffffffffff1673ffffffffffffffffffffffffffffffffffffffff163373ffffffffffffffffffffffffffffffffffffffff1614151561169c576040517f08c379a000000000000000000000000000000000000000000000000000000000815260040180806020018281038252600c8152602001807f556e617574686f72697a6564000000000000000000000000000000000000000081525060200191505060405180910390fd5b600180548060200260200160405190810160405280929190818152602001828054801561171e57602002820191906000526020600020905b8160009054906101000a900473ffffffffffffffffffffffffffffffffffffffff1673ffffffffffffffffffffffffffffffffffffffff16815260200190600101908083116116d4575b5050505050905090565b6060600115156004836040518082805190602001908083835b6020831015156117665780518252602082019150602081019050602083039250611741565b6001836020036101000a038019825116818451168082178552505050505050905001915050908152602001604051809103902060000160009054906101000a900460ff161515141515611821576040517f08c379a00000000000000000000000000000000000000000000000000000000081526004018080602001828103825260138152602001807f5573657220646f6573206e6f742065786973740000000000000000000000000081525060200191505060405180910390fd5b6003826040518082805190602001908083835b6020831015156118595780518252602082019150602081019050602083039250611834565b6001836020036101000a03801982511681845116808217855250505050505090500191505090815260200160405180910390208054600181600116156101000203166002900480601f0160208091040260200160405190810160405280929190818152602001828054600181600116156101000203166002900480156119205780601f106118f557610100808354040283529160200191611920565b820191906000526020600020905b81548152906001019060200180831161190357829003601f168201915b50505050509050919050565b828054600181600116156101000203166002900490600052602060002090601f016020900481019282601f1061196d57805160ff191683800117855561199b565b8280016001018555821561199b579182015b8281111561199a57825182559160200191906001019061197f565b5b5090506119a89190611a2c565b5090565b828054600181600116156101000203166002900490600052602060002090601f016020900481019282601f106119ed57805160ff1916838001178555611a1b565b82800160010185558215611a1b579182015b82811115611a1a5782518255916020019190600101906119ff565b5b509050611a289190611a2c565b5090565b611a4e91905b80821115611a4a576000816000905550600101611a32565b5090565b9056fea165627a7a72305820e7d2251585862a115401a6d76df030c7109e7efa8426fd2d3537d3bdf6cf03f70029",
  "source": "pragma solidity >=0.4.21 <0.6.0;\n\ncontract Kyc {\n\n    address owner;\n\n    constructor() public {\n        owner = msg.sender;\n    }\n\n    struct User {\n        bool present;\n        string signature;\n        string mobileHash;\n    }\n\n    struct Verifier{\n        bool present;\n        bool verified;\n        string bank;\n        string publicKey;\n    }\n\n    address[] unverified;\n    //To store verifier data with key : publickey\n    mapping(address => Verifier) Verifiers;\n\n    //From User's unique ID -> Verifier\n    mapping(string => string) linkedVerifiers;\n\n    //For User Data\n    mapping(string => User) Users;\n\n    function getUnverifiedVerifiers() public view returns (address[] memory) {\n        require(msg.sender == owner, \"Unauthorized\");\n        return unverified;\n    }\n\n     function getVerifier(address verifierAddress) public view returns(string memory){\n        return Verifiers[verifierAddress].bank;\n    }\n\n\n    function getVerifierForUser(string memory _id) public view returns (string memory){\n        require(Users[_id].present == true, \"User does not exist\");\n        return (linkedVerifiers[_id]);\n    }\n\n    function addVerifier(string memory bankName, address verifierAddress, string memory publicKey) public {\n        require(msg.sender == owner,\"Unauthorized\");\n        require(Verifiers[verifierAddress].present == false, \"Verifier already exists\");\n        unverified.push(verifierAddress);\n        Verifiers[verifierAddress] = Verifier(true, false, bankName, publicKey);\n    }\n\n    function getPublicKey(address verifierAddress) public view returns(string memory){\n        return Verifiers[verifierAddress].publicKey;\n    }\n\n    function addUser(string memory _id,\n                    string memory _signature,\n                    string memory _mobileHash,\n                    address verifierAddress) public {\n        require(\n            Users[_id].present == false,\n            \"User already exist\"\n         );\n\n        Users[_id] = User(true, _signature, _mobileHash);\n        require(Verifiers[verifierAddress].present == true, \"Unauthorized verifier\");\n        linkedVerifiers[_id] = getPublicKey(verifierAddress);\n    }\n\n    function getUserSignature(string memory _id) public view returns (string memory) {\n        require(Users[_id].present == true, \"User does not exist\");\n\n        return(Users[_id].signature);\n    }\n\n    function getUserMobileHash(string memory _id) public view returns (string memory) {\n        require(Users[_id].present == true, \"User does not exist\");\n\n        return (Users[_id].mobileHash);\n    }\n}",
  "sourcePath": "/home/sushant/major/E-KYC/src/contracts/Kyc.sol",
  "compiler": {
    "name": "solc",
    "version": "0.5.0+commit.1d4f565a.Emscripten.clang"
  },
  "schemaVersion": "3.0.2",
  "updatedAt": "2020-04-17T08:07:08.229Z",
  "devdoc": {
    "methods": {}
  },
  "userdoc": {
    "methods": {}
  }
}