{
  "contractName": "Kyc",
  "abi": [
    {
      "inputs": [],
      "payable": false,
      "stateMutability": "nonpayable",
      "type": "constructor"
    },
    {
      "constant": true,
      "inputs": [],
      "name": "getUnverifiedVerifiers",
      "outputs": [
        {
          "internalType": "address[]",
          "name": "",
          "type": "address[]"
        }
      ],
      "payable": false,
      "stateMutability": "view",
      "type": "function"
    },
    {
      "constant": true,
      "inputs": [
        {
          "internalType": "address",
          "name": "verifierAddress",
          "type": "address"
        }
      ],
      "name": "getVerifier",
      "outputs": [
        {
          "internalType": "string",
          "name": "",
          "type": "string"
        }
      ],
      "payable": false,
      "stateMutability": "view",
      "type": "function"
    },
    {
      "constant": false,
      "inputs": [
        {
          "internalType": "address",
          "name": "verifierAddress",
          "type": "address"
        }
      ],
      "name": "verifyVerifier",
      "outputs": [
        {
          "internalType": "uint256",
          "name": "",
          "type": "uint256"
        }
      ],
      "payable": false,
      "stateMutability": "nonpayable",
      "type": "function"
    },
    {
      "constant": true,
      "inputs": [
        {
          "internalType": "string",
          "name": "_id",
          "type": "string"
        }
      ],
      "name": "getVerifierForUser",
      "outputs": [
        {
          "internalType": "string",
          "name": "",
          "type": "string"
        }
      ],
      "payable": false,
      "stateMutability": "view",
      "type": "function"
    },
    {
      "constant": false,
      "inputs": [
        {
          "internalType": "string",
          "name": "bankName",
          "type": "string"
        },
        {
          "internalType": "address",
          "name": "verifierAddress",
          "type": "address"
        },
        {
          "internalType": "string",
          "name": "publicKey",
          "type": "string"
        }
      ],
      "name": "addVerifier",
      "outputs": [],
      "payable": false,
      "stateMutability": "nonpayable",
      "type": "function"
    },
    {
      "constant": true,
      "inputs": [
        {
          "internalType": "address",
          "name": "verifierAddress",
          "type": "address"
        }
      ],
      "name": "getPublicKey",
      "outputs": [
        {
          "internalType": "string",
          "name": "",
          "type": "string"
        }
      ],
      "payable": false,
      "stateMutability": "view",
      "type": "function"
    },
    {
      "constant": false,
      "inputs": [
        {
          "internalType": "string",
          "name": "_id",
          "type": "string"
        },
        {
          "internalType": "string",
          "name": "_signature",
          "type": "string"
        },
        {
          "internalType": "string",
          "name": "_mobileHash",
          "type": "string"
        },
        {
          "internalType": "address",
          "name": "verifierAddress",
          "type": "address"
        }
      ],
      "name": "addUser",
      "outputs": [],
      "payable": false,
      "stateMutability": "nonpayable",
      "type": "function"
    },
    {
      "constant": true,
      "inputs": [
        {
          "internalType": "string",
          "name": "_id",
          "type": "string"
        }
      ],
      "name": "getUserSignature",
      "outputs": [
        {
          "internalType": "string",
          "name": "",
          "type": "string"
        }
      ],
      "payable": false,
      "stateMutability": "view",
      "type": "function"
    },
    {
      "constant": true,
      "inputs": [
        {
          "internalType": "string",
          "name": "_id",
          "type": "string"
        }
      ],
      "name": "getUserMobileHash",
      "outputs": [
        {
          "internalType": "string",
          "name": "",
          "type": "string"
        }
      ],
      "payable": false,
      "stateMutability": "view",
      "type": "function"
    }
  ],
  "bytecode": "0x608060405234801561001057600080fd5b50336000806101000a81548173ffffffffffffffffffffffffffffffffffffffff021916908373ffffffffffffffffffffffffffffffffffffffff160217905550611d2b806100606000396000f3fe608060405234801561001057600080fd5b50600436106100935760003560e01c80639bf004b5116100665780639bf004b5146104b85780639f9615b614610510578063b48ff0f114610644578063ceee2d4a1461084d578063d6ffb379146108ac57610093565b8063059ce95d14610098578063131a862114610155578063857cdbb8146102895780639111dab514610346575b600080fd5b6100da600480360360208110156100ae57600080fd5b81019080803573ffffffffffffffffffffffffffffffffffffffff1690602001909291905050506109e0565b6040518080602001828103825283818151815260200191508051906020019080838360005b8381101561011a5780820151818401526020810190506100ff565b50505050905090810190601f1680156101475780820380516001836020036101000a031916815260200191505b509250505060405180910390f35b61020e6004803603602081101561016b57600080fd5b810190808035906020019064010000000081111561018857600080fd5b82018360208201111561019a57600080fd5b803590602001918460018302840111640100000000831117156101bc57600080fd5b91908080601f016020809104026020016040519081016040528093929190818152602001838380828437600081840152601f19601f820116905080830192505050505050509192919290505050610ac4565b6040518080602001828103825283818151815260200191508051906020019080838360005b8381101561024e578082015181840152602081019050610233565b50505050905090810190601f16801561027b5780820380516001836020036101000a031916815260200191505b509250505060405180910390f35b6102cb6004803603602081101561029f57600080fd5b81019080803573ffffffffffffffffffffffffffffffffffffffff169060200190929190505050610cc5565b6040518080602001828103825283818151815260200191508051906020019080838360005b8381101561030b5780820151818401526020810190506102f0565b50505050905090810190601f1680156103385780820380516001836020036101000a031916815260200191505b509250505060405180910390f35b6104b66004803603606081101561035c57600080fd5b810190808035906020019064010000000081111561037957600080fd5b82018360208201111561038b57600080fd5b803590602001918460018302840111640100000000831117156103ad57600080fd5b91908080601f016020809104026020016040519081016040528093929190818152602001838380828437600081840152601f19601f820116905080830192505050505050509192919290803573ffffffffffffffffffffffffffffffffffffffff1690602001909291908035906020019064010000000081111561043057600080fd5b82018360208201111561044257600080fd5b8035906020019184600183028401116401000000008311171561046457600080fd5b91908080601f016020809104026020016040519081016040528093929190818152602001838380828437600081840152601f19601f820116905080830192505050505050509192919290505050610da9565b005b6104fa600480360360208110156104ce57600080fd5b81019080803573ffffffffffffffffffffffffffffffffffffffff169060200190929190505050611082565b6040518082815260200191505060405180910390f35b6105c96004803603602081101561052657600080fd5b810190808035906020019064010000000081111561054357600080fd5b82018360208201111561055557600080fd5b8035906020019184600183028401116401000000008311171561057757600080fd5b91908080601f016020809104026020016040519081016040528093929190818152602001838380828437600081840152601f19601f82011690508083019250505050505050919291929050505061132a565b6040518080602001828103825283818151815260200191508051906020019080838360005b838110156106095780820151818401526020810190506105ee565b50505050905090810190601f1680156106365780820380516001836020036101000a031916815260200191505b509250505060405180910390f35b61084b6004803603608081101561065a57600080fd5b810190808035906020019064010000000081111561067757600080fd5b82018360208201111561068957600080fd5b803590602001918460018302840111640100000000831117156106ab57600080fd5b91908080601f016020809104026020016040519081016040528093929190818152602001838380828437600081840152601f19601f8201169050808301925050505050505091929192908035906020019064010000000081111561070e57600080fd5b82018360208201111561072057600080fd5b8035906020019184600183028401116401000000008311171561074257600080fd5b91908080601f016020809104026020016040519081016040528093929190818152602001838380828437600081840152601f19601f820116905080830192505050505050509192919290803590602001906401000000008111156107a557600080fd5b8201836020820111156107b757600080fd5b803590602001918460018302840111640100000000831117156107d957600080fd5b91908080601f016020809104026020016040519081016040528093929190818152602001838380828437600081840152601f19601f820116905080830192505050505050509192919290803573ffffffffffffffffffffffffffffffffffffffff16906020019092919050505061152b565b005b610855611857565b6040518080602001828103825283818151815260200191508051906020019060200280838360005b8381101561089857808201518184015260208101905061087d565b505050509050019250505060405180910390f35b610965600480360360208110156108c257600080fd5b81019080803590602001906401000000008111156108df57600080fd5b8201836020820111156108f157600080fd5b8035906020019184600183028401116401000000008311171561091357600080fd5b91908080601f016020809104026020016040519081016040528093929190818152602001838380828437600081840152601f19601f8201169050808301925050505050505091929192905050506119a7565b6040518080602001828103825283818151815260200191508051906020019080838360005b838110156109a557808201518184015260208101905061098a565b50505050905090810190601f1680156109d25780820380516001836020036101000a031916815260200191505b509250505060405180910390f35b6060600260008373ffffffffffffffffffffffffffffffffffffffff1673ffffffffffffffffffffffffffffffffffffffff1681526020019081526020016000206001018054600181600116156101000203166002900480601f016020809104026020016040519081016040528092919081815260200182805460018160011615610100020316600290048015610ab85780601f10610a8d57610100808354040283529160200191610ab8565b820191906000526020600020905b815481529060010190602001808311610a9b57829003601f168201915b50505050509050919050565b6060600115156004836040518082805190602001908083835b60208310610b005780518252602082019150602081019050602083039250610add565b6001836020036101000a038019825116818451168082178552505050505050905001915050908152602001604051809103902060000160009054906101000a900460ff16151514610bb9576040517f08c379a00000000000000000000000000000000000000000000000000000000081526004018080602001828103825260138152602001807f5573657220646f6573206e6f742065786973740000000000000000000000000081525060200191505060405180910390fd5b6004826040518082805190602001908083835b60208310610bef5780518252602082019150602081019050602083039250610bcc565b6001836020036101000a03801982511681845116808217855250505050505090500191505090815260200160405180910390206002018054600181600116156101000203166002900480601f016020809104026020016040519081016040528092919081815260200182805460018160011615610100020316600290048015610cb95780601f10610c8e57610100808354040283529160200191610cb9565b820191906000526020600020905b815481529060010190602001808311610c9c57829003601f168201915b50505050509050919050565b6060600260008373ffffffffffffffffffffffffffffffffffffffff1673ffffffffffffffffffffffffffffffffffffffff1681526020019081526020016000206002018054600181600116156101000203166002900480601f016020809104026020016040519081016040528092919081815260200182805460018160011615610100020316600290048015610d9d5780601f10610d7257610100808354040283529160200191610d9d565b820191906000526020600020905b815481529060010190602001808311610d8057829003601f168201915b50505050509050919050565b6000809054906101000a900473ffffffffffffffffffffffffffffffffffffffff1673ffffffffffffffffffffffffffffffffffffffff163373ffffffffffffffffffffffffffffffffffffffff1614610e6b576040517f08c379a000000000000000000000000000000000000000000000000000000000815260040180806020018281038252600c8152602001807f556e617574686f72697a6564000000000000000000000000000000000000000081525060200191505060405180910390fd5b60001515600260008473ffffffffffffffffffffffffffffffffffffffff1673ffffffffffffffffffffffffffffffffffffffff16815260200190815260200160002060000160009054906101000a900460ff16151514610f34576040517f08c379a00000000000000000000000000000000000000000000000000000000081526004018080602001828103825260178152602001807f566572696669657220616c72656164792065786973747300000000000000000081525060200191505060405180910390fd5b60018290806001815401808255809150509060018203906000526020600020016000909192909190916101000a81548173ffffffffffffffffffffffffffffffffffffffff021916908373ffffffffffffffffffffffffffffffffffffffff16021790555050604051806080016040528060011515815260200160001515815260200184815260200182815250600260008473ffffffffffffffffffffffffffffffffffffffff1673ffffffffffffffffffffffffffffffffffffffff16815260200190815260200160002060008201518160000160006101000a81548160ff02191690831515021790555060208201518160000160016101000a81548160ff021916908315150217905550604082015181600101908051906020019061105c929190611ba5565b506060820151816002019080519060200190611079929190611ba5565b50905050505050565b60008060009054906101000a900473ffffffffffffffffffffffffffffffffffffffff1673ffffffffffffffffffffffffffffffffffffffff163373ffffffffffffffffffffffffffffffffffffffff1614611146576040517f08c379a000000000000000000000000000000000000000000000000000000000815260040180806020018281038252600c8152602001807f556e617574686f72697a6564000000000000000000000000000000000000000081525060200191505060405180910390fd5b6001600260008473ffffffffffffffffffffffffffffffffffffffff1673ffffffffffffffffffffffffffffffffffffffff16815260200190815260200160002060000160016101000a81548160ff02191690831515021790555060008090505b60018054905081101561131f578273ffffffffffffffffffffffffffffffffffffffff16600182815481106111d857fe5b9060005260206000200160009054906101000a900473ffffffffffffffffffffffffffffffffffffffff1673ffffffffffffffffffffffffffffffffffffffff161415611312576001808080549050038154811061123257fe5b9060005260206000200160009054906101000a900473ffffffffffffffffffffffffffffffffffffffff166001828154811061126a57fe5b9060005260206000200160006101000a81548173ffffffffffffffffffffffffffffffffffffffff021916908373ffffffffffffffffffffffffffffffffffffffff160217905550600180808054905003815481106112c557fe5b9060005260206000200160006101000a81549073ffffffffffffffffffffffffffffffffffffffff021916905560018054809190600190036113079190611c25565b506001915050611325565b80806001019150506111a7565b50600090505b919050565b6060600115156004836040518082805190602001908083835b602083106113665780518252602082019150602081019050602083039250611343565b6001836020036101000a038019825116818451168082178552505050505050905001915050908152602001604051809103902060000160009054906101000a900460ff1615151461141f576040517f08c379a00000000000000000000000000000000000000000000000000000000081526004018080602001828103825260138152602001807f5573657220646f6573206e6f742065786973740000000000000000000000000081525060200191505060405180910390fd5b6004826040518082805190602001908083835b602083106114555780518252602082019150602081019050602083039250611432565b6001836020036101000a03801982511681845116808217855250505050505090500191505090815260200160405180910390206001018054600181600116156101000203166002900480601f01602080910402602001604051908101604052809291908181526020018280546001816001161561010002031660029004801561151f5780601f106114f45761010080835404028352916020019161151f565b820191906000526020600020905b81548152906001019060200180831161150257829003601f168201915b50505050509050919050565b600015156004856040518082805190602001908083835b602083106115655780518252602082019150602081019050602083039250611542565b6001836020036101000a038019825116818451168082178552505050505050905001915050908152602001604051809103902060000160009054906101000a900460ff1615151461161e576040517f08c379a00000000000000000000000000000000000000000000000000000000081526004018080602001828103825260128152602001807f5573657220616c7265616479206578697374000000000000000000000000000081525060200191505060405180910390fd5b6040518060600160405280600115158152602001848152602001838152506004856040518082805190602001908083835b60208310611672578051825260208201915060208101905060208303925061164f565b6001836020036101000a038019825116818451168082178552505050505050905001915050908152602001604051809103902060008201518160000160006101000a81548160ff02191690831515021790555060208201518160010190805190602001906116e1929190611ba5565b5060408201518160020190805190602001906116fe929190611ba5565b5090505060011515600260008373ffffffffffffffffffffffffffffffffffffffff1673ffffffffffffffffffffffffffffffffffffffff16815260200190815260200160002060000160009054906101000a900460ff161515146117cb576040517f08c379a00000000000000000000000000000000000000000000000000000000081526004018080602001828103825260158152602001807f556e617574686f72697a6564207665726966696572000000000000000000000081525060200191505060405180910390fd5b6117d481610cc5565b6003856040518082805190602001908083835b6020831061180a57805182526020820191506020810190506020830392506117e7565b6001836020036101000a03801982511681845116808217855250505050505090500191505090815260200160405180910390209080519060200190611850929190611c51565b5050505050565b60606000809054906101000a900473ffffffffffffffffffffffffffffffffffffffff1673ffffffffffffffffffffffffffffffffffffffff163373ffffffffffffffffffffffffffffffffffffffff161461191b576040517f08c379a000000000000000000000000000000000000000000000000000000000815260040180806020018281038252600c8152602001807f556e617574686f72697a6564000000000000000000000000000000000000000081525060200191505060405180910390fd5b600180548060200260200160405190810160405280929190818152602001828054801561199d57602002820191906000526020600020905b8160009054906101000a900473ffffffffffffffffffffffffffffffffffffffff1673ffffffffffffffffffffffffffffffffffffffff1681526020019060010190808311611953575b5050505050905090565b6060600115156004836040518082805190602001908083835b602083106119e357805182526020820191506020810190506020830392506119c0565b6001836020036101000a038019825116818451168082178552505050505050905001915050908152602001604051809103902060000160009054906101000a900460ff16151514611a9c576040517f08c379a00000000000000000000000000000000000000000000000000000000081526004018080602001828103825260138152602001807f5573657220646f6573206e6f742065786973740000000000000000000000000081525060200191505060405180910390fd5b6003826040518082805190602001908083835b60208310611ad25780518252602082019150602081019050602083039250611aaf565b6001836020036101000a03801982511681845116808217855250505050505090500191505090815260200160405180910390208054600181600116156101000203166002900480601f016020809104026020016040519081016040528092919081815260200182805460018160011615610100020316600290048015611b995780601f10611b6e57610100808354040283529160200191611b99565b820191906000526020600020905b815481529060010190602001808311611b7c57829003601f168201915b50505050509050919050565b828054600181600116156101000203166002900490600052602060002090601f016020900481019282601f10611be657805160ff1916838001178555611c14565b82800160010185558215611c14579182015b82811115611c13578251825591602001919060010190611bf8565b5b509050611c219190611cd1565b5090565b815481835581811115611c4c57818360005260206000209182019101611c4b9190611cd1565b5b505050565b828054600181600116156101000203166002900490600052602060002090601f016020900481019282601f10611c9257805160ff1916838001178555611cc0565b82800160010185558215611cc0579182015b82811115611cbf578251825591602001919060010190611ca4565b5b509050611ccd9190611cd1565b5090565b611cf391905b80821115611cef576000816000905550600101611cd7565b5090565b9056fea265627a7a72315820a0fccba91d9433ff0cd9b270619506a946d24c1f287ea680893758bf457006cc64736f6c63430005100032",
  "source": "pragma solidity >=0.4.21 <0.6.0;\n\ncontract Kyc {\n\n    address owner;\n\n    constructor() public {\n        owner = msg.sender;\n    }\n\n    struct User {\n        bool present;\n        string signature;\n        string mobileHash;\n    }\n\n    struct Verifier{\n        bool present;\n        bool verified;\n        string bank;\n        string publicKey;\n    }\n\n    address[] unverified;\n    //To store verifier data with key : publickey\n    mapping(address => Verifier) Verifiers;\n\n    //From User's unique ID -> Verifier\n    mapping(string => string) linkedVerifiers;\n\n    //For User Data\n    mapping(string => User) Users;\n\n    function getUnverifiedVerifiers() public view returns (address[] memory) {\n        require(msg.sender == owner, \"Unauthorized\");\n        return unverified;\n    }\n\n     function getVerifier(address verifierAddress) public view returns(string memory){\n        return Verifiers[verifierAddress].bank;\n    }\n\n    function verifyVerifier(address verifierAddress) public returns(uint){\n        require(msg.sender == owner, \"Unauthorized\");\n        Verifiers[verifierAddress].verified = true;\n        for(uint i = 0; i<unverified.length;i++){\n            if(unverified[i] == verifierAddress) {\n                unverified[i] = unverified[unverified.length - 1];\n                delete unverified[unverified.length - 1];\n                unverified.length--;\n                return 1;\n            }\n        }\n        return 0;\n    }\n\n    function getVerifierForUser(string memory _id) public view returns (string memory){\n        require(Users[_id].present == true, \"User does not exist\");\n        return (linkedVerifiers[_id]);\n    }\n\n    function addVerifier(string memory bankName, address verifierAddress, string memory publicKey) public {\n        require(msg.sender == owner,\"Unauthorized\");\n        require(Verifiers[verifierAddress].present == false, \"Verifier already exists\");\n        unverified.push(verifierAddress);\n        Verifiers[verifierAddress] = Verifier(true, false, bankName, publicKey);\n    }\n\n    function getPublicKey(address verifierAddress) public view returns(string memory){\n        return Verifiers[verifierAddress].publicKey;\n    }\n\n    function addUser(string memory _id,\n                    string memory _signature,\n                    string memory _mobileHash,\n                    address verifierAddress) public {\n        require(\n            Users[_id].present == false,\n            \"User already exist\"\n         );\n\n        Users[_id] = User(true, _signature, _mobileHash);\n        require(Verifiers[verifierAddress].present == true, \"Unauthorized verifier\");\n        linkedVerifiers[_id] = getPublicKey(verifierAddress);\n    }\n\n    function getUserSignature(string memory _id) public view returns (string memory) {\n        require(Users[_id].present == true, \"User does not exist\");\n\n        return(Users[_id].signature);\n    }\n\n    function getUserMobileHash(string memory _id) public view returns (string memory) {\n        require(Users[_id].present == true, \"User does not exist\");\n\n        return (Users[_id].mobileHash);\n    }\n}",
  "sourcePath": "/home/aryan/Desktop/temp/E-KYC/src/contracts/Kyc.sol",
  "compiler": {
    "name": "solc",
    "version": "0.5.16+commit.9c3226ce.Emscripten.clang"
  },
  "schemaVersion": "3.1.0",
  "updatedAt": "2020-04-19T04:44:04.382Z",
  "networkType": "ethereum",
  "devdoc": {
    "methods": {}
  },
  "userdoc": {
    "methods": {}
  }
}