{
  "contractName": "Kyc",
  "abi": [
    {
      "inputs": [],
      "payable": false,
      "stateMutability": "nonpayable",
      "type": "constructor"
    },
    {
      "constant": true,
      "inputs": [],
      "name": "getUnverifiedVerifiers",
      "outputs": [
        {
          "internalType": "address[]",
          "name": "",
          "type": "address[]"
        }
      ],
      "payable": false,
      "stateMutability": "view",
      "type": "function"
    },
    {
      "constant": false,
      "inputs": [
        {
          "internalType": "address",
          "name": "bankAddress",
          "type": "address"
        },
        {
          "internalType": "string",
          "name": "bankName",
          "type": "string"
        },
        {
          "internalType": "string",
          "name": "key",
          "type": "string"
        }
      ],
      "name": "pushVerifiers",
      "outputs": [
        {
          "internalType": "address[]",
          "name": "",
          "type": "address[]"
        }
      ],
      "payable": false,
      "stateMutability": "nonpayable",
      "type": "function"
    },
    {
      "constant": true,
      "inputs": [],
      "name": "getVerifiedVerifiers",
      "outputs": [
        {
          "internalType": "address[]",
          "name": "",
          "type": "address[]"
        }
      ],
      "payable": false,
      "stateMutability": "view",
      "type": "function"
    },
    {
      "constant": true,
      "inputs": [
        {
          "internalType": "address",
          "name": "verifierAddress",
          "type": "address"
        }
      ],
      "name": "getVerifier",
      "outputs": [
        {
          "internalType": "string",
          "name": "",
          "type": "string"
        }
      ],
      "payable": false,
      "stateMutability": "view",
      "type": "function"
    },
    {
      "constant": false,
      "inputs": [
        {
          "internalType": "address",
          "name": "verifierAddress",
          "type": "address"
        }
      ],
      "name": "verifyVerifier",
      "outputs": [
        {
          "internalType": "uint256",
          "name": "",
          "type": "uint256"
        }
      ],
      "payable": false,
      "stateMutability": "nonpayable",
      "type": "function"
    },
    {
      "constant": true,
      "inputs": [
        {
          "internalType": "string",
          "name": "_id",
          "type": "string"
        }
      ],
      "name": "getVerifierForUser",
      "outputs": [
        {
          "internalType": "string",
          "name": "",
          "type": "string"
        }
      ],
      "payable": false,
      "stateMutability": "view",
      "type": "function"
    },
    {
      "constant": false,
      "inputs": [
        {
          "internalType": "string",
          "name": "bankName",
          "type": "string"
        },
        {
          "internalType": "address",
          "name": "verifierAddress",
          "type": "address"
        },
        {
          "internalType": "string",
          "name": "publicKey",
          "type": "string"
        }
      ],
      "name": "addVerifier",
      "outputs": [],
      "payable": false,
      "stateMutability": "nonpayable",
      "type": "function"
    },
    {
      "constant": true,
      "inputs": [
        {
          "internalType": "address",
          "name": "verifierAddress",
          "type": "address"
        }
      ],
      "name": "getPublicKey",
      "outputs": [
        {
          "internalType": "string",
          "name": "",
          "type": "string"
        }
      ],
      "payable": false,
      "stateMutability": "view",
      "type": "function"
    },
    {
      "constant": false,
      "inputs": [
        {
          "internalType": "string",
          "name": "_id",
          "type": "string"
        },
        {
          "internalType": "string",
          "name": "_signature",
          "type": "string"
        },
        {
          "internalType": "string",
          "name": "_mobileHash",
          "type": "string"
        },
        {
          "internalType": "address",
          "name": "verifierAddress",
          "type": "address"
        }
      ],
      "name": "addUser",
      "outputs": [],
      "payable": false,
      "stateMutability": "nonpayable",
      "type": "function"
    },
    {
      "constant": true,
      "inputs": [
        {
          "internalType": "string",
          "name": "_id",
          "type": "string"
        }
      ],
      "name": "getUserSignature",
      "outputs": [
        {
          "internalType": "string",
          "name": "",
          "type": "string"
        }
      ],
      "payable": false,
      "stateMutability": "view",
      "type": "function"
    },
    {
      "constant": true,
      "inputs": [
        {
          "internalType": "string",
          "name": "_id",
          "type": "string"
        }
      ],
      "name": "getUserMobileHash",
      "outputs": [
        {
          "internalType": "string",
          "name": "",
          "type": "string"
        }
      ],
      "payable": false,
      "stateMutability": "view",
      "type": "function"
    },
    {
      "constant": true,
      "inputs": [
        {
          "internalType": "address[]",
          "name": "unverifiedAddresses",
          "type": "address[]"
        },
        {
          "internalType": "address",
          "name": "current",
          "type": "address"
        }
      ],
      "name": "present",
      "outputs": [
        {
          "internalType": "bool",
          "name": "",
          "type": "bool"
        }
      ],
      "payable": false,
      "stateMutability": "view",
      "type": "function"
    },
    {
      "constant": true,
      "inputs": [
        {
          "internalType": "address",
          "name": "currentAddress",
          "type": "address"
        }
      ],
      "name": "identifyAddress",
      "outputs": [
        {
          "internalType": "uint256",
          "name": "",
          "type": "uint256"
        }
      ],
      "payable": false,
      "stateMutability": "view",
      "type": "function"
    }
  ],
  "bytecode": "0x608060405234801561001057600080fd5b50336000806101000a81548173ffffffffffffffffffffffffffffffffffffffff021916908373ffffffffffffffffffffffffffffffffffffffff1602179055506126ab806100606000396000f3fe608060405234801561001057600080fd5b50600436106100cf5760003560e01c80639bf004b51161008c578063aff6f5f711610066578063aff6f5f7146108fe578063b48ff0f1146109ee578063ceee2d4a14610bf7578063d6ffb37914610c56576100cf565b80639bf004b5146105ab5780639f9615b614610603578063ac46c47714610737576100cf565b8063059ce95d146100d4578063131a86211461019157806380534100146102c5578063857cdbb81461031d5780639111dab5146103da578063999a05c91461054c575b600080fd5b610116600480360360208110156100ea57600080fd5b81019080803573ffffffffffffffffffffffffffffffffffffffff169060200190929190505050610d8a565b6040518080602001828103825283818151815260200191508051906020019080838360005b8381101561015657808201518184015260208101905061013b565b50505050905090810190601f1680156101835780820380516001836020036101000a031916815260200191505b509250505060405180910390f35b61024a600480360360208110156101a757600080fd5b81019080803590602001906401000000008111156101c457600080fd5b8201836020820111156101d657600080fd5b803590602001918460018302840111640100000000831117156101f857600080fd5b91908080601f016020809104026020016040519081016040528093929190818152602001838380828437600081840152601f19601f820116905080830192505050505050509192919290505050610e6e565b6040518080602001828103825283818151815260200191508051906020019080838360005b8381101561028a57808201518184015260208101905061026f565b50505050905090810190601f1680156102b75780820380516001836020036101000a031916815260200191505b509250505060405180910390f35b610307600480360360208110156102db57600080fd5b81019080803573ffffffffffffffffffffffffffffffffffffffff16906020019092919050505061106f565b6040518082815260200191505060405180910390f35b61035f6004803603602081101561033357600080fd5b81019080803573ffffffffffffffffffffffffffffffffffffffff1690602001909291905050506111dc565b6040518080602001828103825283818151815260200191508051906020019080838360005b8381101561039f578082015181840152602081019050610384565b50505050905090810190601f1680156103cc5780820380516001836020036101000a031916815260200191505b509250505060405180910390f35b61054a600480360360608110156103f057600080fd5b810190808035906020019064010000000081111561040d57600080fd5b82018360208201111561041f57600080fd5b8035906020019184600183028401116401000000008311171561044157600080fd5b91908080601f016020809104026020016040519081016040528093929190818152602001838380828437600081840152601f19601f820116905080830192505050505050509192919290803573ffffffffffffffffffffffffffffffffffffffff169060200190929190803590602001906401000000008111156104c457600080fd5b8201836020820111156104d657600080fd5b803590602001918460018302840111640100000000831117156104f857600080fd5b91908080601f016020809104026020016040519081016040528093929190818152602001838380828437600081840152601f19601f8201169050808301925050505050505091929192905050506112c0565b005b610554611599565b6040518080602001828103825283818151815260200191508051906020019060200280838360005b8381101561059757808201518184015260208101905061057c565b505050509050019250505060405180910390f35b6105ed600480360360208110156105c157600080fd5b81019080803573ffffffffffffffffffffffffffffffffffffffff1690602001909291905050506116e9565b6040518082815260200191505060405180910390f35b6106bc6004803603602081101561061957600080fd5b810190808035906020019064010000000081111561063657600080fd5b82018360208201111561064857600080fd5b8035906020019184600183028401116401000000008311171561066a57600080fd5b91908080601f016020809104026020016040519081016040528093929190818152602001838380828437600081840152601f19601f8201169050808301925050505050505091929192905050506119f7565b6040518080602001828103825283818151815260200191508051906020019080838360005b838110156106fc5780820151818401526020810190506106e1565b50505050905090810190601f1680156107295780820380516001836020036101000a031916815260200191505b509250505060405180910390f35b6108a76004803603606081101561074d57600080fd5b81019080803573ffffffffffffffffffffffffffffffffffffffff1690602001909291908035906020019064010000000081111561078a57600080fd5b82018360208201111561079c57600080fd5b803590602001918460018302840111640100000000831117156107be57600080fd5b91908080601f016020809104026020016040519081016040528093929190818152602001838380828437600081840152601f19601f8201169050808301925050505050505091929192908035906020019064010000000081111561082157600080fd5b82018360208201111561083357600080fd5b8035906020019184600183028401116401000000008311171561085557600080fd5b91908080601f016020809104026020016040519081016040528093929190818152602001838380828437600081840152601f19601f820116905080830192505050505050509192919290505050611bf8565b6040518080602001828103825283818151815260200191508051906020019060200280838360005b838110156108ea5780820151818401526020810190506108cf565b505050509050019250505060405180910390f35b6109d46004803603604081101561091457600080fd5b810190808035906020019064010000000081111561093157600080fd5b82018360208201111561094357600080fd5b8035906020019184602083028401116401000000008311171561096557600080fd5b919080806020026020016040519081016040528093929190818152602001838360200280828437600081840152601f19601f820116905080830192505050505050509192919290803573ffffffffffffffffffffffffffffffffffffffff169060200190929190505050611e0c565b604051808215151515815260200191505060405180910390f35b610bf560048036036080811015610a0457600080fd5b8101908080359060200190640100000000811115610a2157600080fd5b820183602082011115610a3357600080fd5b80359060200191846001830284011164010000000083111715610a5557600080fd5b91908080601f016020809104026020016040519081016040528093929190818152602001838380828437600081840152601f19601f82011690508083019250505050505050919291929080359060200190640100000000811115610ab857600080fd5b820183602082011115610aca57600080fd5b80359060200191846001830284011164010000000083111715610aec57600080fd5b91908080601f016020809104026020016040519081016040528093929190818152602001838380828437600081840152601f19601f82011690508083019250505050505050919291929080359060200190640100000000811115610b4f57600080fd5b820183602082011115610b6157600080fd5b80359060200191846001830284011164010000000083111715610b8357600080fd5b91908080601f016020809104026020016040519081016040528093929190818152602001838380828437600081840152601f19601f820116905080830192505050505050509192919290803573ffffffffffffffffffffffffffffffffffffffff169060200190929190505050611eab565b005b610bff6121d7565b6040518080602001828103825283818151815260200191508051906020019060200280838360005b83811015610c42578082015181840152602081019050610c27565b505050509050019250505060405180910390f35b610d0f60048036036020811015610c6c57600080fd5b8101908080359060200190640100000000811115610c8957600080fd5b820183602082011115610c9b57600080fd5b80359060200191846001830284011164010000000083111715610cbd57600080fd5b91908080601f016020809104026020016040519081016040528093929190818152602001838380828437600081840152601f19601f820116905080830192505050505050509192919290505050612327565b6040518080602001828103825283818151815260200191508051906020019080838360005b83811015610d4f578082015181840152602081019050610d34565b50505050905090810190601f168015610d7c5780820380516001836020036101000a031916815260200191505b509250505060405180910390f35b6060600360008373ffffffffffffffffffffffffffffffffffffffff1673ffffffffffffffffffffffffffffffffffffffff1681526020019081526020016000206001018054600181600116156101000203166002900480601f016020809104026020016040519081016040528092919081815260200182805460018160011615610100020316600290048015610e625780601f10610e3757610100808354040283529160200191610e62565b820191906000526020600020905b815481529060010190602001808311610e4557829003601f168201915b50505050509050919050565b6060600115156005836040518082805190602001908083835b60208310610eaa5780518252602082019150602081019050602083039250610e87565b6001836020036101000a038019825116818451168082178552505050505050905001915050908152602001604051809103902060000160009054906101000a900460ff16151514610f63576040517f08c379a00000000000000000000000000000000000000000000000000000000081526004018080602001828103825260138152602001807f5573657220646f6573206e6f742065786973740000000000000000000000000081525060200191505060405180910390fd5b6005826040518082805190602001908083835b60208310610f995780518252602082019150602081019050602083039250610f76565b6001836020036101000a03801982511681845116808217855250505050505090500191505090815260200160405180910390206002018054600181600116156101000203166002900480601f0160208091040260200160405190810160405280929190818152602001828054600181600116156101000203166002900480156110635780601f1061103857610100808354040283529160200191611063565b820191906000526020600020905b81548152906001019060200180831161104657829003601f168201915b50505050509050919050565b60008060009054906101000a900473ffffffffffffffffffffffffffffffffffffffff1673ffffffffffffffffffffffffffffffffffffffff168273ffffffffffffffffffffffffffffffffffffffff1614156110cf57600190506111d7565b61115f600180548060200260200160405190810160405280929190818152602001828054801561115457602002820191906000526020600020905b8160009054906101000a900473ffffffffffffffffffffffffffffffffffffffff1673ffffffffffffffffffffffffffffffffffffffff168152602001906001019080831161110a575b505050505083611e0c565b1561116d57600390506111d7565b60011515600360008473ffffffffffffffffffffffffffffffffffffffff1673ffffffffffffffffffffffffffffffffffffffff16815260200190815260200160002060000160009054906101000a900460ff16151514156111d257600290506111d7565b600490505b919050565b6060600360008373ffffffffffffffffffffffffffffffffffffffff1673ffffffffffffffffffffffffffffffffffffffff1681526020019081526020016000206002018054600181600116156101000203166002900480601f0160208091040260200160405190810160405280929190818152602001828054600181600116156101000203166002900480156112b45780601f10611289576101008083540402835291602001916112b4565b820191906000526020600020905b81548152906001019060200180831161129757829003601f168201915b50505050509050919050565b6000809054906101000a900473ffffffffffffffffffffffffffffffffffffffff1673ffffffffffffffffffffffffffffffffffffffff163373ffffffffffffffffffffffffffffffffffffffff1614611382576040517f08c379a000000000000000000000000000000000000000000000000000000000815260040180806020018281038252600c8152602001807f556e617574686f72697a6564000000000000000000000000000000000000000081525060200191505060405180910390fd5b60001515600360008473ffffffffffffffffffffffffffffffffffffffff1673ffffffffffffffffffffffffffffffffffffffff16815260200190815260200160002060000160009054906101000a900460ff1615151461144b576040517f08c379a00000000000000000000000000000000000000000000000000000000081526004018080602001828103825260178152602001807f566572696669657220616c72656164792065786973747300000000000000000081525060200191505060405180910390fd5b60018290806001815401808255809150509060018203906000526020600020016000909192909190916101000a81548173ffffffffffffffffffffffffffffffffffffffff021916908373ffffffffffffffffffffffffffffffffffffffff16021790555050604051806080016040528060011515815260200160001515815260200184815260200182815250600360008473ffffffffffffffffffffffffffffffffffffffff1673ffffffffffffffffffffffffffffffffffffffff16815260200190815260200160002060008201518160000160006101000a81548160ff02191690831515021790555060208201518160000160016101000a81548160ff0219169083151502179055506040820151816001019080519060200190611573929190612525565b506060820151816002019080519060200190611590929190612525565b50905050505050565b60606000809054906101000a900473ffffffffffffffffffffffffffffffffffffffff1673ffffffffffffffffffffffffffffffffffffffff163373ffffffffffffffffffffffffffffffffffffffff161461165d576040517f08c379a000000000000000000000000000000000000000000000000000000000815260040180806020018281038252600c8152602001807f556e617574686f72697a6564000000000000000000000000000000000000000081525060200191505060405180910390fd5b60028054806020026020016040519081016040528092919081815260200182805480156116df57602002820191906000526020600020905b8160009054906101000a900473ffffffffffffffffffffffffffffffffffffffff1673ffffffffffffffffffffffffffffffffffffffff1681526020019060010190808311611695575b5050505050905090565b60008060009054906101000a900473ffffffffffffffffffffffffffffffffffffffff1673ffffffffffffffffffffffffffffffffffffffff163373ffffffffffffffffffffffffffffffffffffffff16146117ad576040517f08c379a000000000000000000000000000000000000000000000000000000000815260040180806020018281038252600c8152602001807f556e617574686f72697a6564000000000000000000000000000000000000000081525060200191505060405180910390fd5b6001600360008473ffffffffffffffffffffffffffffffffffffffff1673ffffffffffffffffffffffffffffffffffffffff16815260200190815260200160002060000160016101000a81548160ff02191690831515021790555060008090505b6001805490508110156119ec578273ffffffffffffffffffffffffffffffffffffffff166001828154811061183f57fe5b9060005260206000200160009054906101000a900473ffffffffffffffffffffffffffffffffffffffff1673ffffffffffffffffffffffffffffffffffffffff1614156119df5760028390806001815401808255809150509060018203906000526020600020016000909192909190916101000a81548173ffffffffffffffffffffffffffffffffffffffff021916908373ffffffffffffffffffffffffffffffffffffffff16021790555050600180808054905003815481106118ff57fe5b9060005260206000200160009054906101000a900473ffffffffffffffffffffffffffffffffffffffff166001828154811061193757fe5b9060005260206000200160006101000a81548173ffffffffffffffffffffffffffffffffffffffff021916908373ffffffffffffffffffffffffffffffffffffffff1602179055506001808080549050038154811061199257fe5b9060005260206000200160006101000a81549073ffffffffffffffffffffffffffffffffffffffff021916905560018054809190600190036119d491906125a5565b5060019150506119f2565b808060010191505061180e565b50600090505b919050565b6060600115156005836040518082805190602001908083835b60208310611a335780518252602082019150602081019050602083039250611a10565b6001836020036101000a038019825116818451168082178552505050505050905001915050908152602001604051809103902060000160009054906101000a900460ff16151514611aec576040517f08c379a00000000000000000000000000000000000000000000000000000000081526004018080602001828103825260138152602001807f5573657220646f6573206e6f742065786973740000000000000000000000000081525060200191505060405180910390fd5b6005826040518082805190602001908083835b60208310611b225780518252602082019150602081019050602083039250611aff565b6001836020036101000a03801982511681845116808217855250505050505090500191505090815260200160405180910390206001018054600181600116156101000203166002900480601f016020809104026020016040519081016040528092919081815260200182805460018160011615610100020316600290048015611bec5780601f10611bc157610100808354040283529160200191611bec565b820191906000526020600020905b815481529060010190602001808311611bcf57829003601f168201915b50505050509050919050565b60606000809054906101000a900473ffffffffffffffffffffffffffffffffffffffff1673ffffffffffffffffffffffffffffffffffffffff163373ffffffffffffffffffffffffffffffffffffffff1614611cbc576040517f08c379a000000000000000000000000000000000000000000000000000000000815260040180806020018281038252600c8152602001807f556e617574686f72697a6564000000000000000000000000000000000000000081525060200191505060405180910390fd5b604051806080016040528060011515815260200160011515815260200184815260200183815250600360008673ffffffffffffffffffffffffffffffffffffffff1673ffffffffffffffffffffffffffffffffffffffff16815260200190815260200160002060008201518160000160006101000a81548160ff02191690831515021790555060208201518160000160016101000a81548160ff0219169083151502179055506040820151816001019080519060200190611d7e929190612525565b506060820151816002019080519060200190611d9b929190612525565b5090505060028490806001815401808255809150509060018203906000526020600020016000909192909190916101000a81548173ffffffffffffffffffffffffffffffffffffffff021916908373ffffffffffffffffffffffffffffffffffffffff160217905550509392505050565b600080600090505b8351811015611e9f578273ffffffffffffffffffffffffffffffffffffffff1660018281548110611e4157fe5b9060005260206000200160009054906101000a900473ffffffffffffffffffffffffffffffffffffffff1673ffffffffffffffffffffffffffffffffffffffff161415611e92576001915050611ea5565b8080600101915050611e14565b50600090505b92915050565b600015156005856040518082805190602001908083835b60208310611ee55780518252602082019150602081019050602083039250611ec2565b6001836020036101000a038019825116818451168082178552505050505050905001915050908152602001604051809103902060000160009054906101000a900460ff16151514611f9e576040517f08c379a00000000000000000000000000000000000000000000000000000000081526004018080602001828103825260128152602001807f5573657220616c7265616479206578697374000000000000000000000000000081525060200191505060405180910390fd5b6040518060600160405280600115158152602001848152602001838152506005856040518082805190602001908083835b60208310611ff25780518252602082019150602081019050602083039250611fcf565b6001836020036101000a038019825116818451168082178552505050505050905001915050908152602001604051809103902060008201518160000160006101000a81548160ff0219169083151502179055506020820151816001019080519060200190612061929190612525565b50604082015181600201908051906020019061207e929190612525565b5090505060011515600360008373ffffffffffffffffffffffffffffffffffffffff1673ffffffffffffffffffffffffffffffffffffffff16815260200190815260200160002060000160009054906101000a900460ff1615151461214b576040517f08c379a00000000000000000000000000000000000000000000000000000000081526004018080602001828103825260158152602001807f556e617574686f72697a6564207665726966696572000000000000000000000081525060200191505060405180910390fd5b612154816111dc565b6004856040518082805190602001908083835b6020831061218a5780518252602082019150602081019050602083039250612167565b6001836020036101000a038019825116818451168082178552505050505050905001915050908152602001604051809103902090805190602001906121d09291906125d1565b5050505050565b60606000809054906101000a900473ffffffffffffffffffffffffffffffffffffffff1673ffffffffffffffffffffffffffffffffffffffff163373ffffffffffffffffffffffffffffffffffffffff161461229b576040517f08c379a000000000000000000000000000000000000000000000000000000000815260040180806020018281038252600c8152602001807f556e617574686f72697a6564000000000000000000000000000000000000000081525060200191505060405180910390fd5b600180548060200260200160405190810160405280929190818152602001828054801561231d57602002820191906000526020600020905b8160009054906101000a900473ffffffffffffffffffffffffffffffffffffffff1673ffffffffffffffffffffffffffffffffffffffff16815260200190600101908083116122d3575b5050505050905090565b6060600115156005836040518082805190602001908083835b602083106123635780518252602082019150602081019050602083039250612340565b6001836020036101000a038019825116818451168082178552505050505050905001915050908152602001604051809103902060000160009054906101000a900460ff1615151461241c576040517f08c379a00000000000000000000000000000000000000000000000000000000081526004018080602001828103825260138152602001807f5573657220646f6573206e6f742065786973740000000000000000000000000081525060200191505060405180910390fd5b6004826040518082805190602001908083835b60208310612452578051825260208201915060208101905060208303925061242f565b6001836020036101000a03801982511681845116808217855250505050505090500191505090815260200160405180910390208054600181600116156101000203166002900480601f0160208091040260200160405190810160405280929190818152602001828054600181600116156101000203166002900480156125195780601f106124ee57610100808354040283529160200191612519565b820191906000526020600020905b8154815290600101906020018083116124fc57829003601f168201915b50505050509050919050565b828054600181600116156101000203166002900490600052602060002090601f016020900481019282601f1061256657805160ff1916838001178555612594565b82800160010185558215612594579182015b82811115612593578251825591602001919060010190612578565b5b5090506125a19190612651565b5090565b8154818355818111156125cc578183600052602060002091820191016125cb9190612651565b5b505050565b828054600181600116156101000203166002900490600052602060002090601f016020900481019282601f1061261257805160ff1916838001178555612640565b82800160010185558215612640579182015b8281111561263f578251825591602001919060010190612624565b5b50905061264d9190612651565b5090565b61267391905b8082111561266f576000816000905550600101612657565b5090565b9056fea265627a7a723158202acbe27692688fb14c356eb845d0795dfbeb675c03b76cfceda7fd6c15bf89f864736f6c63430005100032",
  "source": "pragma solidity >=0.4.21 <0.6.0;\n\ncontract Kyc {\n\n    address owner;\n\n    constructor() public {\n        owner = msg.sender;\n    }\n\n    struct User {\n        bool present;\n        string signature;\n        string mobileHash;\n    }\n\n    struct Verifier{\n        bool present;\n        bool verified;\n        string bank;\n        string publicKey;\n    }\n\n    address[] unverified;\n    address[] verified;\n\n    //To store verifier data with key : publickey\n    mapping(address => Verifier) Verifiers;\n\n    //From User's unique ID -> Verifier\n    mapping(string => string) linkedVerifiers;\n\n    //For User Data\n    mapping(string => User) Users;\n\n    function getUnverifiedVerifiers() public view returns (address[] memory) {\n        require(msg.sender == owner, \"Unauthorized\");\n        return unverified;\n    }\n    \n    function pushVerifiers(address bankAddress, string memory bankName, string memory key) public returns (address[] memory){\n        require(msg.sender == owner, \"Unauthorized\");\n        Verifiers[bankAddress] = Verifier(true, true, bankName, key);\n        verified.push(bankAddress);\n    }\n\n    function getVerifiedVerifiers() public view returns (address[] memory){\n        require(msg.sender == owner, \"Unauthorized\");\n        return verified;\n    }\n\n     function getVerifier(address verifierAddress) public view returns(string memory){\n        return Verifiers[verifierAddress].bank;\n    }\n\n    function verifyVerifier(address verifierAddress) public returns(uint){\n        require(msg.sender == owner, \"Unauthorized\");\n        Verifiers[verifierAddress].verified = true;\n        for(uint i = 0; i<unverified.length;i++){\n            if(unverified[i] == verifierAddress) {\n\n                verified.push(verifierAddress);\n                \n                unverified[i] = unverified[unverified.length - 1];\n                delete unverified[unverified.length - 1];\n                unverified.length--;\n                return 1;\n            }\n        }\n        return 0;\n    }\n\n    function getVerifierForUser(string memory _id) public view returns (string memory){\n        require(Users[_id].present == true, \"User does not exist\");\n        return (linkedVerifiers[_id]);\n    }\n\n    function addVerifier(string memory bankName, address verifierAddress, string memory publicKey) public {\n        require(msg.sender == owner,\"Unauthorized\");\n        require(Verifiers[verifierAddress].present == false, \"Verifier already exists\");\n        unverified.push(verifierAddress);\n        Verifiers[verifierAddress] = Verifier(true, false, bankName, publicKey);\n    }\n\n    function getPublicKey(address verifierAddress) public view returns(string memory){\n        return Verifiers[verifierAddress].publicKey;\n    }\n\n    function addUser(string memory _id,\n                    string memory _signature,\n                    string memory _mobileHash,\n                    address verifierAddress) public {\n        require(\n            Users[_id].present == false,\n            \"User already exist\"\n         );\n\n        Users[_id] = User(true, _signature, _mobileHash);\n        require(Verifiers[verifierAddress].present == true, \"Unauthorized verifier\");\n        linkedVerifiers[_id] = getPublicKey(verifierAddress);\n    }\n\n    function getUserSignature(string memory _id) public view returns (string memory) {\n        require(Users[_id].present == true, \"User does not exist\");\n\n        return(Users[_id].signature);\n    }\n\n    function getUserMobileHash(string memory _id) public view returns (string memory) {\n        require(Users[_id].present == true, \"User does not exist\");\n\n        return (Users[_id].mobileHash);\n    }\n\n    function present(address[] memory unverifiedAddresses,address current) public view returns (bool){\n        for(uint i = 0; i<unverifiedAddresses.length;i++){\n            if(unverified[i] == current) {\n                return true;\n            }\n        }\n        return false;\n    }\n\n    function identifyAddress(address currentAddress) public view returns (uint) {\n        if(currentAddress == owner)\n        {\n            return 1;\n        }\n        else if(present(unverified,currentAddress))\n        {\n            return 3;\n        }\n        else if(Verifiers[currentAddress].present == true)\n        {\n            return 2;\n        }\n        return 4;\n    }\n\n}\n",
  "sourcePath": "/home/aryan/Desktop/MAJOR/temp/E-KYC/src/contracts/Kyc.sol",
  "compiler": {
    "name": "solc",
    "version": "0.5.16+commit.9c3226ce.Emscripten.clang"
  },
  "schemaVersion": "3.1.0",
  "updatedAt": "2020-05-11T05:49:38.196Z",
  "networkType": "ethereum",
  "devdoc": {
    "methods": {}
  },
  "userdoc": {
    "methods": {}
  }
}