{
  "contractName": "Kyc",
  "abi": [
    {
      "inputs": [],
      "payable": false,
      "stateMutability": "nonpayable",
      "type": "constructor"
    },
    {
      "constant": true,
      "inputs": [],
      "name": "getUnverifiedVerifiers",
      "outputs": [
        {
          "internalType": "address[]",
          "name": "",
          "type": "address[]"
        }
      ],
      "payable": false,
      "stateMutability": "view",
      "type": "function"
    },
    {
      "constant": false,
      "inputs": [
        {
          "internalType": "address",
          "name": "bankAddress",
          "type": "address"
        },
        {
          "internalType": "string",
          "name": "bankName",
          "type": "string"
        },
        {
          "internalType": "string",
          "name": "key",
          "type": "string"
        }
      ],
      "name": "pushVerifiers",
      "outputs": [
        {
          "internalType": "address[]",
          "name": "",
          "type": "address[]"
        }
      ],
      "payable": false,
      "stateMutability": "nonpayable",
      "type": "function"
    },
    {
      "constant": true,
      "inputs": [],
      "name": "getVerifiedVerifiers",
      "outputs": [
        {
          "internalType": "address[]",
          "name": "",
          "type": "address[]"
        }
      ],
      "payable": false,
      "stateMutability": "view",
      "type": "function"
    },
    {
      "constant": true,
      "inputs": [
        {
          "internalType": "address",
          "name": "verifierAddress",
          "type": "address"
        }
      ],
      "name": "getVerifier",
      "outputs": [
        {
          "internalType": "string",
          "name": "",
          "type": "string"
        }
      ],
      "payable": false,
      "stateMutability": "view",
      "type": "function"
    },
    {
      "constant": false,
      "inputs": [
        {
          "internalType": "address",
          "name": "verifierAddress",
          "type": "address"
        }
      ],
      "name": "verifyVerifier",
      "outputs": [
        {
          "internalType": "uint256",
          "name": "",
          "type": "uint256"
        }
      ],
      "payable": false,
      "stateMutability": "nonpayable",
      "type": "function"
    },
    {
      "constant": true,
      "inputs": [
        {
          "internalType": "string",
          "name": "_id",
          "type": "string"
        }
      ],
      "name": "getVerifierForUser",
      "outputs": [
        {
          "internalType": "string",
          "name": "",
          "type": "string"
        }
      ],
      "payable": false,
      "stateMutability": "view",
      "type": "function"
    },
    {
      "constant": false,
      "inputs": [
        {
          "internalType": "string",
          "name": "bankName",
          "type": "string"
        },
        {
          "internalType": "address",
          "name": "verifierAddress",
          "type": "address"
        },
        {
          "internalType": "string",
          "name": "publicKey",
          "type": "string"
        }
      ],
      "name": "addVerifier",
      "outputs": [],
      "payable": false,
      "stateMutability": "nonpayable",
      "type": "function"
    },
    {
      "constant": true,
      "inputs": [
        {
          "internalType": "address",
          "name": "verifierAddress",
          "type": "address"
        }
      ],
      "name": "getPublicKey",
      "outputs": [
        {
          "internalType": "string",
          "name": "",
          "type": "string"
        }
      ],
      "payable": false,
      "stateMutability": "view",
      "type": "function"
    },
    {
      "constant": false,
      "inputs": [
        {
          "internalType": "string",
          "name": "_id",
          "type": "string"
        },
        {
          "internalType": "string",
          "name": "_signature",
          "type": "string"
        },
        {
          "internalType": "string",
          "name": "_mobileHash",
          "type": "string"
        },
        {
          "internalType": "address",
          "name": "verifierAddress",
          "type": "address"
        }
      ],
      "name": "addUser",
      "outputs": [],
      "payable": false,
      "stateMutability": "nonpayable",
      "type": "function"
    },
    {
      "constant": true,
      "inputs": [
        {
          "internalType": "string",
          "name": "_id",
          "type": "string"
        }
      ],
      "name": "getUserSignature",
      "outputs": [
        {
          "internalType": "string",
          "name": "",
          "type": "string"
        }
      ],
      "payable": false,
      "stateMutability": "view",
      "type": "function"
    },
    {
      "constant": true,
      "inputs": [
        {
          "internalType": "string",
          "name": "_id",
          "type": "string"
        }
      ],
      "name": "getUserMobileHash",
      "outputs": [
        {
          "internalType": "string",
          "name": "",
          "type": "string"
        }
      ],
      "payable": false,
      "stateMutability": "view",
      "type": "function"
    }
  ],
  "bytecode": "0x608060405234801561001057600080fd5b50336000806101000a81548173ffffffffffffffffffffffffffffffffffffffff021916908373ffffffffffffffffffffffffffffffffffffffff160217905550612331806100606000396000f3fe608060405234801561001057600080fd5b50600436106100a95760003560e01c80639bf004b5116100715780639bf004b51461052d5780639f9615b614610585578063ac46c477146106b9578063b48ff0f114610880578063ceee2d4a14610a89578063d6ffb37914610ae8576100a9565b8063059ce95d146100ae578063131a86211461016b578063857cdbb81461029f5780639111dab51461035c578063999a05c9146104ce575b600080fd5b6100f0600480360360208110156100c457600080fd5b81019080803573ffffffffffffffffffffffffffffffffffffffff169060200190929190505050610c1c565b6040518080602001828103825283818151815260200191508051906020019080838360005b83811015610130578082015181840152602081019050610115565b50505050905090810190601f16801561015d5780820380516001836020036101000a031916815260200191505b509250505060405180910390f35b6102246004803603602081101561018157600080fd5b810190808035906020019064010000000081111561019e57600080fd5b8201836020820111156101b057600080fd5b803590602001918460018302840111640100000000831117156101d257600080fd5b91908080601f016020809104026020016040519081016040528093929190818152602001838380828437600081840152601f19601f820116905080830192505050505050509192919290505050610d00565b6040518080602001828103825283818151815260200191508051906020019080838360005b83811015610264578082015181840152602081019050610249565b50505050905090810190601f1680156102915780820380516001836020036101000a031916815260200191505b509250505060405180910390f35b6102e1600480360360208110156102b557600080fd5b81019080803573ffffffffffffffffffffffffffffffffffffffff169060200190929190505050610f01565b6040518080602001828103825283818151815260200191508051906020019080838360005b83811015610321578082015181840152602081019050610306565b50505050905090810190601f16801561034e5780820380516001836020036101000a031916815260200191505b509250505060405180910390f35b6104cc6004803603606081101561037257600080fd5b810190808035906020019064010000000081111561038f57600080fd5b8201836020820111156103a157600080fd5b803590602001918460018302840111640100000000831117156103c357600080fd5b91908080601f016020809104026020016040519081016040528093929190818152602001838380828437600081840152601f19601f820116905080830192505050505050509192919290803573ffffffffffffffffffffffffffffffffffffffff1690602001909291908035906020019064010000000081111561044657600080fd5b82018360208201111561045857600080fd5b8035906020019184600183028401116401000000008311171561047a57600080fd5b91908080601f016020809104026020016040519081016040528093929190818152602001838380828437600081840152601f19601f820116905080830192505050505050509192919290505050610fe5565b005b6104d66112be565b6040518080602001828103825283818151815260200191508051906020019060200280838360005b838110156105195780820151818401526020810190506104fe565b505050509050019250505060405180910390f35b61056f6004803603602081101561054357600080fd5b81019080803573ffffffffffffffffffffffffffffffffffffffff16906020019092919050505061140e565b6040518082815260200191505060405180910390f35b61063e6004803603602081101561059b57600080fd5b81019080803590602001906401000000008111156105b857600080fd5b8201836020820111156105ca57600080fd5b803590602001918460018302840111640100000000831117156105ec57600080fd5b91908080601f016020809104026020016040519081016040528093929190818152602001838380828437600081840152601f19601f82011690508083019250505050505050919291929050505061171c565b6040518080602001828103825283818151815260200191508051906020019080838360005b8381101561067e578082015181840152602081019050610663565b50505050905090810190601f1680156106ab5780820380516001836020036101000a031916815260200191505b509250505060405180910390f35b610829600480360360608110156106cf57600080fd5b81019080803573ffffffffffffffffffffffffffffffffffffffff1690602001909291908035906020019064010000000081111561070c57600080fd5b82018360208201111561071e57600080fd5b8035906020019184600183028401116401000000008311171561074057600080fd5b91908080601f016020809104026020016040519081016040528093929190818152602001838380828437600081840152601f19601f820116905080830192505050505050509192919290803590602001906401000000008111156107a357600080fd5b8201836020820111156107b557600080fd5b803590602001918460018302840111640100000000831117156107d757600080fd5b91908080601f016020809104026020016040519081016040528093929190818152602001838380828437600081840152601f19601f82011690508083019250505050505050919291929050505061191d565b6040518080602001828103825283818151815260200191508051906020019060200280838360005b8381101561086c578082015181840152602081019050610851565b505050509050019250505060405180910390f35b610a876004803603608081101561089657600080fd5b81019080803590602001906401000000008111156108b357600080fd5b8201836020820111156108c557600080fd5b803590602001918460018302840111640100000000831117156108e757600080fd5b91908080601f016020809104026020016040519081016040528093929190818152602001838380828437600081840152601f19601f8201169050808301925050505050505091929192908035906020019064010000000081111561094a57600080fd5b82018360208201111561095c57600080fd5b8035906020019184600183028401116401000000008311171561097e57600080fd5b91908080601f016020809104026020016040519081016040528093929190818152602001838380828437600081840152601f19601f820116905080830192505050505050509192919290803590602001906401000000008111156109e157600080fd5b8201836020820111156109f357600080fd5b80359060200191846001830284011164010000000083111715610a1557600080fd5b91908080601f016020809104026020016040519081016040528093929190818152602001838380828437600081840152601f19601f820116905080830192505050505050509192919290803573ffffffffffffffffffffffffffffffffffffffff169060200190929190505050611b31565b005b610a91611e5d565b6040518080602001828103825283818151815260200191508051906020019060200280838360005b83811015610ad4578082015181840152602081019050610ab9565b505050509050019250505060405180910390f35b610ba160048036036020811015610afe57600080fd5b8101908080359060200190640100000000811115610b1b57600080fd5b820183602082011115610b2d57600080fd5b80359060200191846001830284011164010000000083111715610b4f57600080fd5b91908080601f016020809104026020016040519081016040528093929190818152602001838380828437600081840152601f19601f820116905080830192505050505050509192919290505050611fad565b6040518080602001828103825283818151815260200191508051906020019080838360005b83811015610be1578082015181840152602081019050610bc6565b50505050905090810190601f168015610c0e5780820380516001836020036101000a031916815260200191505b509250505060405180910390f35b6060600360008373ffffffffffffffffffffffffffffffffffffffff1673ffffffffffffffffffffffffffffffffffffffff1681526020019081526020016000206001018054600181600116156101000203166002900480601f016020809104026020016040519081016040528092919081815260200182805460018160011615610100020316600290048015610cf45780601f10610cc957610100808354040283529160200191610cf4565b820191906000526020600020905b815481529060010190602001808311610cd757829003601f168201915b50505050509050919050565b6060600115156005836040518082805190602001908083835b60208310610d3c5780518252602082019150602081019050602083039250610d19565b6001836020036101000a038019825116818451168082178552505050505050905001915050908152602001604051809103902060000160009054906101000a900460ff16151514610df5576040517f08c379a00000000000000000000000000000000000000000000000000000000081526004018080602001828103825260138152602001807f5573657220646f6573206e6f742065786973740000000000000000000000000081525060200191505060405180910390fd5b6005826040518082805190602001908083835b60208310610e2b5780518252602082019150602081019050602083039250610e08565b6001836020036101000a03801982511681845116808217855250505050505090500191505090815260200160405180910390206002018054600181600116156101000203166002900480601f016020809104026020016040519081016040528092919081815260200182805460018160011615610100020316600290048015610ef55780601f10610eca57610100808354040283529160200191610ef5565b820191906000526020600020905b815481529060010190602001808311610ed857829003601f168201915b50505050509050919050565b6060600360008373ffffffffffffffffffffffffffffffffffffffff1673ffffffffffffffffffffffffffffffffffffffff1681526020019081526020016000206002018054600181600116156101000203166002900480601f016020809104026020016040519081016040528092919081815260200182805460018160011615610100020316600290048015610fd95780601f10610fae57610100808354040283529160200191610fd9565b820191906000526020600020905b815481529060010190602001808311610fbc57829003601f168201915b50505050509050919050565b6000809054906101000a900473ffffffffffffffffffffffffffffffffffffffff1673ffffffffffffffffffffffffffffffffffffffff163373ffffffffffffffffffffffffffffffffffffffff16146110a7576040517f08c379a000000000000000000000000000000000000000000000000000000000815260040180806020018281038252600c8152602001807f556e617574686f72697a6564000000000000000000000000000000000000000081525060200191505060405180910390fd5b60001515600360008473ffffffffffffffffffffffffffffffffffffffff1673ffffffffffffffffffffffffffffffffffffffff16815260200190815260200160002060000160009054906101000a900460ff16151514611170576040517f08c379a00000000000000000000000000000000000000000000000000000000081526004018080602001828103825260178152602001807f566572696669657220616c72656164792065786973747300000000000000000081525060200191505060405180910390fd5b60018290806001815401808255809150509060018203906000526020600020016000909192909190916101000a81548173ffffffffffffffffffffffffffffffffffffffff021916908373ffffffffffffffffffffffffffffffffffffffff16021790555050604051806080016040528060011515815260200160001515815260200184815260200182815250600360008473ffffffffffffffffffffffffffffffffffffffff1673ffffffffffffffffffffffffffffffffffffffff16815260200190815260200160002060008201518160000160006101000a81548160ff02191690831515021790555060208201518160000160016101000a81548160ff02191690831515021790555060408201518160010190805190602001906112989291906121ab565b5060608201518160020190805190602001906112b59291906121ab565b50905050505050565b60606000809054906101000a900473ffffffffffffffffffffffffffffffffffffffff1673ffffffffffffffffffffffffffffffffffffffff163373ffffffffffffffffffffffffffffffffffffffff1614611382576040517f08c379a000000000000000000000000000000000000000000000000000000000815260040180806020018281038252600c8152602001807f556e617574686f72697a6564000000000000000000000000000000000000000081525060200191505060405180910390fd5b600280548060200260200160405190810160405280929190818152602001828054801561140457602002820191906000526020600020905b8160009054906101000a900473ffffffffffffffffffffffffffffffffffffffff1673ffffffffffffffffffffffffffffffffffffffff16815260200190600101908083116113ba575b5050505050905090565b60008060009054906101000a900473ffffffffffffffffffffffffffffffffffffffff1673ffffffffffffffffffffffffffffffffffffffff163373ffffffffffffffffffffffffffffffffffffffff16146114d2576040517f08c379a000000000000000000000000000000000000000000000000000000000815260040180806020018281038252600c8152602001807f556e617574686f72697a6564000000000000000000000000000000000000000081525060200191505060405180910390fd5b6001600360008473ffffffffffffffffffffffffffffffffffffffff1673ffffffffffffffffffffffffffffffffffffffff16815260200190815260200160002060000160016101000a81548160ff02191690831515021790555060008090505b600180549050811015611711578273ffffffffffffffffffffffffffffffffffffffff166001828154811061156457fe5b9060005260206000200160009054906101000a900473ffffffffffffffffffffffffffffffffffffffff1673ffffffffffffffffffffffffffffffffffffffff1614156117045760028390806001815401808255809150509060018203906000526020600020016000909192909190916101000a81548173ffffffffffffffffffffffffffffffffffffffff021916908373ffffffffffffffffffffffffffffffffffffffff160217905550506001808080549050038154811061162457fe5b9060005260206000200160009054906101000a900473ffffffffffffffffffffffffffffffffffffffff166001828154811061165c57fe5b9060005260206000200160006101000a81548173ffffffffffffffffffffffffffffffffffffffff021916908373ffffffffffffffffffffffffffffffffffffffff160217905550600180808054905003815481106116b757fe5b9060005260206000200160006101000a81549073ffffffffffffffffffffffffffffffffffffffff021916905560018054809190600190036116f9919061222b565b506001915050611717565b8080600101915050611533565b50600090505b919050565b6060600115156005836040518082805190602001908083835b602083106117585780518252602082019150602081019050602083039250611735565b6001836020036101000a038019825116818451168082178552505050505050905001915050908152602001604051809103902060000160009054906101000a900460ff16151514611811576040517f08c379a00000000000000000000000000000000000000000000000000000000081526004018080602001828103825260138152602001807f5573657220646f6573206e6f742065786973740000000000000000000000000081525060200191505060405180910390fd5b6005826040518082805190602001908083835b602083106118475780518252602082019150602081019050602083039250611824565b6001836020036101000a03801982511681845116808217855250505050505090500191505090815260200160405180910390206001018054600181600116156101000203166002900480601f0160208091040260200160405190810160405280929190818152602001828054600181600116156101000203166002900480156119115780601f106118e657610100808354040283529160200191611911565b820191906000526020600020905b8154815290600101906020018083116118f457829003601f168201915b50505050509050919050565b60606000809054906101000a900473ffffffffffffffffffffffffffffffffffffffff1673ffffffffffffffffffffffffffffffffffffffff163373ffffffffffffffffffffffffffffffffffffffff16146119e1576040517f08c379a000000000000000000000000000000000000000000000000000000000815260040180806020018281038252600c8152602001807f556e617574686f72697a6564000000000000000000000000000000000000000081525060200191505060405180910390fd5b604051806080016040528060011515815260200160011515815260200184815260200183815250600360008673ffffffffffffffffffffffffffffffffffffffff1673ffffffffffffffffffffffffffffffffffffffff16815260200190815260200160002060008201518160000160006101000a81548160ff02191690831515021790555060208201518160000160016101000a81548160ff0219169083151502179055506040820151816001019080519060200190611aa39291906121ab565b506060820151816002019080519060200190611ac09291906121ab565b5090505060028490806001815401808255809150509060018203906000526020600020016000909192909190916101000a81548173ffffffffffffffffffffffffffffffffffffffff021916908373ffffffffffffffffffffffffffffffffffffffff160217905550509392505050565b600015156005856040518082805190602001908083835b60208310611b6b5780518252602082019150602081019050602083039250611b48565b6001836020036101000a038019825116818451168082178552505050505050905001915050908152602001604051809103902060000160009054906101000a900460ff16151514611c24576040517f08c379a00000000000000000000000000000000000000000000000000000000081526004018080602001828103825260128152602001807f5573657220616c7265616479206578697374000000000000000000000000000081525060200191505060405180910390fd5b6040518060600160405280600115158152602001848152602001838152506005856040518082805190602001908083835b60208310611c785780518252602082019150602081019050602083039250611c55565b6001836020036101000a038019825116818451168082178552505050505050905001915050908152602001604051809103902060008201518160000160006101000a81548160ff0219169083151502179055506020820151816001019080519060200190611ce79291906121ab565b506040820151816002019080519060200190611d049291906121ab565b5090505060011515600360008373ffffffffffffffffffffffffffffffffffffffff1673ffffffffffffffffffffffffffffffffffffffff16815260200190815260200160002060000160009054906101000a900460ff16151514611dd1576040517f08c379a00000000000000000000000000000000000000000000000000000000081526004018080602001828103825260158152602001807f556e617574686f72697a6564207665726966696572000000000000000000000081525060200191505060405180910390fd5b611dda81610f01565b6004856040518082805190602001908083835b60208310611e105780518252602082019150602081019050602083039250611ded565b6001836020036101000a03801982511681845116808217855250505050505090500191505090815260200160405180910390209080519060200190611e56929190612257565b5050505050565b60606000809054906101000a900473ffffffffffffffffffffffffffffffffffffffff1673ffffffffffffffffffffffffffffffffffffffff163373ffffffffffffffffffffffffffffffffffffffff1614611f21576040517f08c379a000000000000000000000000000000000000000000000000000000000815260040180806020018281038252600c8152602001807f556e617574686f72697a6564000000000000000000000000000000000000000081525060200191505060405180910390fd5b6001805480602002602001604051908101604052809291908181526020018280548015611fa357602002820191906000526020600020905b8160009054906101000a900473ffffffffffffffffffffffffffffffffffffffff1673ffffffffffffffffffffffffffffffffffffffff1681526020019060010190808311611f59575b5050505050905090565b6060600115156005836040518082805190602001908083835b60208310611fe95780518252602082019150602081019050602083039250611fc6565b6001836020036101000a038019825116818451168082178552505050505050905001915050908152602001604051809103902060000160009054906101000a900460ff161515146120a2576040517f08c379a00000000000000000000000000000000000000000000000000000000081526004018080602001828103825260138152602001807f5573657220646f6573206e6f742065786973740000000000000000000000000081525060200191505060405180910390fd5b6004826040518082805190602001908083835b602083106120d857805182526020820191506020810190506020830392506120b5565b6001836020036101000a03801982511681845116808217855250505050505090500191505090815260200160405180910390208054600181600116156101000203166002900480601f01602080910402602001604051908101604052809291908181526020018280546001816001161561010002031660029004801561219f5780601f106121745761010080835404028352916020019161219f565b820191906000526020600020905b81548152906001019060200180831161218257829003601f168201915b50505050509050919050565b828054600181600116156101000203166002900490600052602060002090601f016020900481019282601f106121ec57805160ff191683800117855561221a565b8280016001018555821561221a579182015b828111156122195782518255916020019190600101906121fe565b5b50905061222791906122d7565b5090565b8154818355818111156122525781836000526020600020918201910161225191906122d7565b5b505050565b828054600181600116156101000203166002900490600052602060002090601f016020900481019282601f1061229857805160ff19168380011785556122c6565b828001600101855582156122c6579182015b828111156122c55782518255916020019190600101906122aa565b5b5090506122d391906122d7565b5090565b6122f991905b808211156122f55760008160009055506001016122dd565b5090565b9056fea265627a7a7231582040af3ae081b95238437360993dcbb949507ed4f05ff5f389720f83dd0532cdb964736f6c63430005100032",
  "source": "pragma solidity >=0.4.21 <0.6.0;\r\n\r\ncontract Kyc {\r\n\r\n    address owner;\r\n\r\n    constructor() public {\r\n        owner = msg.sender;\r\n    }\r\n\r\n    struct User {\r\n        bool present;\r\n        string signature;\r\n        string mobileHash;\r\n    }\r\n\r\n    struct Verifier{\r\n        bool present;\r\n        bool verified;\r\n        string bank;\r\n        string publicKey;\r\n    }\r\n\r\n    address[] unverified;\r\n    address[] verified;\r\n\r\n    //To store verifier data with key : publickey\r\n    mapping(address => Verifier) Verifiers;\r\n\r\n    //From User's unique ID -> Verifier\r\n    mapping(string => string) linkedVerifiers;\r\n\r\n    //For User Data\r\n    mapping(string => User) Users;\r\n\r\n    function getUnverifiedVerifiers() public view returns (address[] memory) {\r\n        require(msg.sender == owner, \"Unauthorized\");\r\n        return unverified;\r\n    }\r\n    \r\n    function pushVerifiers(address bankAddress, string memory bankName, string memory key) public returns (address[] memory){\r\n        require(msg.sender == owner, \"Unauthorized\");\r\n        Verifiers[bankAddress] = Verifier(true, true, bankName, key);\r\n        verified.push(bankAddress);\r\n    }\r\n\r\n    function getVerifiedVerifiers() public view returns (address[] memory){\r\n        require(msg.sender == owner, \"Unauthorized\");\r\n        return verified;\r\n    }\r\n\r\n     function getVerifier(address verifierAddress) public view returns(string memory){\r\n        return Verifiers[verifierAddress].bank;\r\n    }\r\n\r\n    function verifyVerifier(address verifierAddress) public returns(uint){\r\n        require(msg.sender == owner, \"Unauthorized\");\r\n        Verifiers[verifierAddress].verified = true;\r\n        for(uint i = 0; i<unverified.length;i++){\r\n            if(unverified[i] == verifierAddress) {\r\n\r\n                verified.push(verifierAddress);\r\n                \r\n                unverified[i] = unverified[unverified.length - 1];\r\n                delete unverified[unverified.length - 1];\r\n                unverified.length--;\r\n                return 1;\r\n            }\r\n        }\r\n        return 0;\r\n    }\r\n\r\n    function getVerifierForUser(string memory _id) public view returns (string memory){\r\n        require(Users[_id].present == true, \"User does not exist\");\r\n        return (linkedVerifiers[_id]);\r\n    }\r\n\r\n    function addVerifier(string memory bankName, address verifierAddress, string memory publicKey) public {\r\n        require(msg.sender == owner,\"Unauthorized\");\r\n        require(Verifiers[verifierAddress].present == false, \"Verifier already exists\");\r\n        unverified.push(verifierAddress);\r\n        Verifiers[verifierAddress] = Verifier(true, false, bankName, publicKey);\r\n    }\r\n\r\n    function getPublicKey(address verifierAddress) public view returns(string memory){\r\n        return Verifiers[verifierAddress].publicKey;\r\n    }\r\n\r\n    function addUser(string memory _id,\r\n                    string memory _signature,\r\n                    string memory _mobileHash,\r\n                    address verifierAddress) public {\r\n        require(\r\n            Users[_id].present == false,\r\n            \"User already exist\"\r\n         );\r\n\r\n        Users[_id] = User(true, _signature, _mobileHash);\r\n        require(Verifiers[verifierAddress].present == true, \"Unauthorized verifier\");\r\n        linkedVerifiers[_id] = getPublicKey(verifierAddress);\r\n    }\r\n\r\n    function getUserSignature(string memory _id) public view returns (string memory) {\r\n        require(Users[_id].present == true, \"User does not exist\");\r\n\r\n        return(Users[_id].signature);\r\n    }\r\n\r\n    function getUserMobileHash(string memory _id) public view returns (string memory) {\r\n        require(Users[_id].present == true, \"User does not exist\");\r\n\r\n        return (Users[_id].mobileHash);\r\n    }\r\n}",
  "sourcePath": "C:\\Users\\Prakhar Maheshwari\\Desktop\\major\\E-KYC\\src\\contracts\\Kyc.sol",
  "compiler": {
    "name": "solc",
    "version": "0.5.16+commit.9c3226ce.Emscripten.clang"
  },
  "schemaVersion": "3.1.0",
  "updatedAt": "2020-04-19T04:25:54.007Z",
  "networkType": "ethereum",
  "devdoc": {
    "methods": {}
  },
  "userdoc": {
    "methods": {}
  }
}