{
  "contractName": "Kyc",
  "abi": [
    {
      "inputs": [],
      "payable": false,
      "stateMutability": "nonpayable",
      "type": "constructor"
    },
    {
      "constant": true,
      "inputs": [],
      "name": "getUnverifiedVerifiers",
      "outputs": [
        {
          "internalType": "address[]",
          "name": "",
          "type": "address[]"
        }
      ],
      "payable": false,
      "stateMutability": "view",
      "type": "function"
    },
    {
      "constant": true,
      "inputs": [
        {
          "internalType": "address",
          "name": "verifierAddress",
          "type": "address"
        }
      ],
      "name": "getVerifier",
      "outputs": [
        {
          "internalType": "bool",
          "name": "",
          "type": "bool"
        }
      ],
      "payable": false,
      "stateMutability": "view",
      "type": "function"
    },
    {
      "constant": true,
      "inputs": [
        {
          "internalType": "string",
          "name": "_id",
          "type": "string"
        }
      ],
      "name": "getVerifierForUser",
      "outputs": [
        {
          "internalType": "string",
          "name": "",
          "type": "string"
        }
      ],
      "payable": false,
      "stateMutability": "view",
      "type": "function"
    },
    {
      "constant": false,
      "inputs": [
        {
          "internalType": "string",
          "name": "bankName",
          "type": "string"
        },
        {
          "internalType": "address",
          "name": "verifierAddress",
          "type": "address"
        },
        {
          "internalType": "string",
          "name": "publicKey",
          "type": "string"
        }
      ],
      "name": "addVerifier",
      "outputs": [],
      "payable": false,
      "stateMutability": "nonpayable",
      "type": "function"
    },
    {
      "constant": true,
      "inputs": [
        {
          "internalType": "address",
          "name": "verifierAddress",
          "type": "address"
        }
      ],
      "name": "getPublicKey",
      "outputs": [
        {
          "internalType": "string",
          "name": "",
          "type": "string"
        }
      ],
      "payable": false,
      "stateMutability": "view",
      "type": "function"
    },
    {
      "constant": false,
      "inputs": [
        {
          "internalType": "string",
          "name": "_id",
          "type": "string"
        },
        {
          "internalType": "string",
          "name": "_signature",
          "type": "string"
        },
        {
          "internalType": "string",
          "name": "_mobileHash",
          "type": "string"
        },
        {
          "internalType": "address",
          "name": "verifierAddress",
          "type": "address"
        }
      ],
      "name": "addUser",
      "outputs": [],
      "payable": false,
      "stateMutability": "nonpayable",
      "type": "function"
    },
    {
      "constant": true,
      "inputs": [
        {
          "internalType": "string",
          "name": "_id",
          "type": "string"
        }
      ],
      "name": "getUserSignature",
      "outputs": [
        {
          "internalType": "string",
          "name": "",
          "type": "string"
        }
      ],
      "payable": false,
      "stateMutability": "view",
      "type": "function"
    },
    {
      "constant": true,
      "inputs": [
        {
          "internalType": "string",
          "name": "_id",
          "type": "string"
        }
      ],
      "name": "getUserMobileHash",
      "outputs": [
        {
          "internalType": "string",
          "name": "",
          "type": "string"
        }
      ],
      "payable": false,
      "stateMutability": "view",
      "type": "function"
    }
  ],
  "bytecode": "0x608060405234801561001057600080fd5b50336000806101000a81548173ffffffffffffffffffffffffffffffffffffffff021916908373ffffffffffffffffffffffffffffffffffffffff160217905550611908806100606000396000f3fe608060405234801561001057600080fd5b50600436106100885760003560e01c80639f9615b61161005b5780639f9615b61461044c578063b48ff0f114610580578063ceee2d4a14610789578063d6ffb379146107e857610088565b8063059ce95d1461008d578063131a8621146100e9578063857cdbb81461021d5780639111dab5146102da575b600080fd5b6100cf600480360360208110156100a357600080fd5b81019080803573ffffffffffffffffffffffffffffffffffffffff16906020019092919050505061091c565b604051808215151515815260200191505060405180910390f35b6101a2600480360360208110156100ff57600080fd5b810190808035906020019064010000000081111561011c57600080fd5b82018360208201111561012e57600080fd5b8035906020019184600183028401116401000000008311171561015057600080fd5b91908080601f016020809104026020016040519081016040528093929190818152602001838380828437600081840152601f19601f820116905080830192505050505050509192919290505050610975565b6040518080602001828103825283818151815260200191508051906020019080838360005b838110156101e25780820151818401526020810190506101c7565b50505050905090810190601f16801561020f5780820380516001836020036101000a031916815260200191505b509250505060405180910390f35b61025f6004803603602081101561023357600080fd5b81019080803573ffffffffffffffffffffffffffffffffffffffff169060200190929190505050610b76565b6040518080602001828103825283818151815260200191508051906020019080838360005b8381101561029f578082015181840152602081019050610284565b50505050905090810190601f1680156102cc5780820380516001836020036101000a031916815260200191505b509250505060405180910390f35b61044a600480360360608110156102f057600080fd5b810190808035906020019064010000000081111561030d57600080fd5b82018360208201111561031f57600080fd5b8035906020019184600183028401116401000000008311171561034157600080fd5b91908080601f016020809104026020016040519081016040528093929190818152602001838380828437600081840152601f19601f820116905080830192505050505050509192919290803573ffffffffffffffffffffffffffffffffffffffff169060200190929190803590602001906401000000008111156103c457600080fd5b8201836020820111156103d657600080fd5b803590602001918460018302840111640100000000831117156103f857600080fd5b91908080601f016020809104026020016040519081016040528093929190818152602001838380828437600081840152601f19601f820116905080830192505050505050509192919290505050610c5a565b005b6105056004803603602081101561046257600080fd5b810190808035906020019064010000000081111561047f57600080fd5b82018360208201111561049157600080fd5b803590602001918460018302840111640100000000831117156104b357600080fd5b91908080601f016020809104026020016040519081016040528093929190818152602001838380828437600081840152601f19601f820116905080830192505050505050509192919290505050610f33565b6040518080602001828103825283818151815260200191508051906020019080838360005b8381101561054557808201518184015260208101905061052a565b50505050905090810190601f1680156105725780820380516001836020036101000a031916815260200191505b509250505060405180910390f35b6107876004803603608081101561059657600080fd5b81019080803590602001906401000000008111156105b357600080fd5b8201836020820111156105c557600080fd5b803590602001918460018302840111640100000000831117156105e757600080fd5b91908080601f016020809104026020016040519081016040528093929190818152602001838380828437600081840152601f19601f8201169050808301925050505050505091929192908035906020019064010000000081111561064a57600080fd5b82018360208201111561065c57600080fd5b8035906020019184600183028401116401000000008311171561067e57600080fd5b91908080601f016020809104026020016040519081016040528093929190818152602001838380828437600081840152601f19601f820116905080830192505050505050509192919290803590602001906401000000008111156106e157600080fd5b8201836020820111156106f357600080fd5b8035906020019184600183028401116401000000008311171561071557600080fd5b91908080601f016020809104026020016040519081016040528093929190818152602001838380828437600081840152601f19601f820116905080830192505050505050509192919290803573ffffffffffffffffffffffffffffffffffffffff169060200190929190505050611134565b005b610791611460565b6040518080602001828103825283818151815260200191508051906020019060200280838360005b838110156107d45780820151818401526020810190506107b9565b505050509050019250505060405180910390f35b6108a1600480360360208110156107fe57600080fd5b810190808035906020019064010000000081111561081b57600080fd5b82018360208201111561082d57600080fd5b8035906020019184600183028401116401000000008311171561084f57600080fd5b91908080601f016020809104026020016040519081016040528093929190818152602001838380828437600081840152601f19601f8201169050808301925050505050505091929192905050506115b0565b6040518080602001828103825283818151815260200191508051906020019080838360005b838110156108e15780820151818401526020810190506108c6565b50505050905090810190601f16801561090e5780820380516001836020036101000a031916815260200191505b509250505060405180910390f35b6000600260008373ffffffffffffffffffffffffffffffffffffffff1673ffffffffffffffffffffffffffffffffffffffff16815260200190815260200160002060000160009054906101000a900460ff169050919050565b6060600115156004836040518082805190602001908083835b602083106109b1578051825260208201915060208101905060208303925061098e565b6001836020036101000a038019825116818451168082178552505050505050905001915050908152602001604051809103902060000160009054906101000a900460ff16151514610a6a576040517f08c379a00000000000000000000000000000000000000000000000000000000081526004018080602001828103825260138152602001807f5573657220646f6573206e6f742065786973740000000000000000000000000081525060200191505060405180910390fd5b6004826040518082805190602001908083835b60208310610aa05780518252602082019150602081019050602083039250610a7d565b6001836020036101000a03801982511681845116808217855250505050505090500191505090815260200160405180910390206002018054600181600116156101000203166002900480601f016020809104026020016040519081016040528092919081815260200182805460018160011615610100020316600290048015610b6a5780601f10610b3f57610100808354040283529160200191610b6a565b820191906000526020600020905b815481529060010190602001808311610b4d57829003601f168201915b50505050509050919050565b6060600260008373ffffffffffffffffffffffffffffffffffffffff1673ffffffffffffffffffffffffffffffffffffffff1681526020019081526020016000206002018054600181600116156101000203166002900480601f016020809104026020016040519081016040528092919081815260200182805460018160011615610100020316600290048015610c4e5780601f10610c2357610100808354040283529160200191610c4e565b820191906000526020600020905b815481529060010190602001808311610c3157829003601f168201915b50505050509050919050565b6000809054906101000a900473ffffffffffffffffffffffffffffffffffffffff1673ffffffffffffffffffffffffffffffffffffffff163373ffffffffffffffffffffffffffffffffffffffff1614610d1c576040517f08c379a000000000000000000000000000000000000000000000000000000000815260040180806020018281038252600c8152602001807f556e617574686f72697a6564000000000000000000000000000000000000000081525060200191505060405180910390fd5b60001515600260008473ffffffffffffffffffffffffffffffffffffffff1673ffffffffffffffffffffffffffffffffffffffff16815260200190815260200160002060000160009054906101000a900460ff16151514610de5576040517f08c379a00000000000000000000000000000000000000000000000000000000081526004018080602001828103825260178152602001807f566572696669657220616c72656164792065786973747300000000000000000081525060200191505060405180910390fd5b60018290806001815401808255809150509060018203906000526020600020016000909192909190916101000a81548173ffffffffffffffffffffffffffffffffffffffff021916908373ffffffffffffffffffffffffffffffffffffffff16021790555050604051806080016040528060011515815260200160011515815260200184815260200182815250600260008473ffffffffffffffffffffffffffffffffffffffff1673ffffffffffffffffffffffffffffffffffffffff16815260200190815260200160002060008201518160000160006101000a81548160ff02191690831515021790555060208201518160000160016101000a81548160ff0219169083151502179055506040820151816001019080519060200190610f0d9291906117ae565b506060820151816002019080519060200190610f2a9291906117ae565b50905050505050565b6060600115156004836040518082805190602001908083835b60208310610f6f5780518252602082019150602081019050602083039250610f4c565b6001836020036101000a038019825116818451168082178552505050505050905001915050908152602001604051809103902060000160009054906101000a900460ff16151514611028576040517f08c379a00000000000000000000000000000000000000000000000000000000081526004018080602001828103825260138152602001807f5573657220646f6573206e6f742065786973740000000000000000000000000081525060200191505060405180910390fd5b6004826040518082805190602001908083835b6020831061105e578051825260208201915060208101905060208303925061103b565b6001836020036101000a03801982511681845116808217855250505050505090500191505090815260200160405180910390206001018054600181600116156101000203166002900480601f0160208091040260200160405190810160405280929190818152602001828054600181600116156101000203166002900480156111285780601f106110fd57610100808354040283529160200191611128565b820191906000526020600020905b81548152906001019060200180831161110b57829003601f168201915b50505050509050919050565b600015156004856040518082805190602001908083835b6020831061116e578051825260208201915060208101905060208303925061114b565b6001836020036101000a038019825116818451168082178552505050505050905001915050908152602001604051809103902060000160009054906101000a900460ff16151514611227576040517f08c379a00000000000000000000000000000000000000000000000000000000081526004018080602001828103825260128152602001807f5573657220616c7265616479206578697374000000000000000000000000000081525060200191505060405180910390fd5b6040518060600160405280600115158152602001848152602001838152506004856040518082805190602001908083835b6020831061127b5780518252602082019150602081019050602083039250611258565b6001836020036101000a038019825116818451168082178552505050505050905001915050908152602001604051809103902060008201518160000160006101000a81548160ff02191690831515021790555060208201518160010190805190602001906112ea9291906117ae565b5060408201518160020190805190602001906113079291906117ae565b5090505060011515600260008373ffffffffffffffffffffffffffffffffffffffff1673ffffffffffffffffffffffffffffffffffffffff16815260200190815260200160002060000160009054906101000a900460ff161515146113d4576040517f08c379a00000000000000000000000000000000000000000000000000000000081526004018080602001828103825260158152602001807f556e617574686f72697a6564207665726966696572000000000000000000000081525060200191505060405180910390fd5b6113dd81610b76565b6003856040518082805190602001908083835b6020831061141357805182526020820191506020810190506020830392506113f0565b6001836020036101000a0380198251168184511680821785525050505050509050019150509081526020016040518091039020908051906020019061145992919061182e565b5050505050565b60606000809054906101000a900473ffffffffffffffffffffffffffffffffffffffff1673ffffffffffffffffffffffffffffffffffffffff163373ffffffffffffffffffffffffffffffffffffffff1614611524576040517f08c379a000000000000000000000000000000000000000000000000000000000815260040180806020018281038252600c8152602001807f556e617574686f72697a6564000000000000000000000000000000000000000081525060200191505060405180910390fd5b60018054806020026020016040519081016040528092919081815260200182805480156115a657602002820191906000526020600020905b8160009054906101000a900473ffffffffffffffffffffffffffffffffffffffff1673ffffffffffffffffffffffffffffffffffffffff168152602001906001019080831161155c575b5050505050905090565b6060600115156004836040518082805190602001908083835b602083106115ec57805182526020820191506020810190506020830392506115c9565b6001836020036101000a038019825116818451168082178552505050505050905001915050908152602001604051809103902060000160009054906101000a900460ff161515146116a5576040517f08c379a00000000000000000000000000000000000000000000000000000000081526004018080602001828103825260138152602001807f5573657220646f6573206e6f742065786973740000000000000000000000000081525060200191505060405180910390fd5b6003826040518082805190602001908083835b602083106116db57805182526020820191506020810190506020830392506116b8565b6001836020036101000a03801982511681845116808217855250505050505090500191505090815260200160405180910390208054600181600116156101000203166002900480601f0160208091040260200160405190810160405280929190818152602001828054600181600116156101000203166002900480156117a25780601f10611777576101008083540402835291602001916117a2565b820191906000526020600020905b81548152906001019060200180831161178557829003601f168201915b50505050509050919050565b828054600181600116156101000203166002900490600052602060002090601f016020900481019282601f106117ef57805160ff191683800117855561181d565b8280016001018555821561181d579182015b8281111561181c578251825591602001919060010190611801565b5b50905061182a91906118ae565b5090565b828054600181600116156101000203166002900490600052602060002090601f016020900481019282601f1061186f57805160ff191683800117855561189d565b8280016001018555821561189d579182015b8281111561189c578251825591602001919060010190611881565b5b5090506118aa91906118ae565b5090565b6118d091905b808211156118cc5760008160009055506001016118b4565b5090565b9056fea265627a7a72315820121e62097babb8789cff14527be5ccdaede491738356cc7082001fa577d3030f64736f6c63430005100032",
  "source": "pragma solidity >=0.4.21 <0.6.0;\r\n\r\ncontract Kyc {\r\n\r\n    address owner;\r\n\r\n    constructor() public {\r\n        owner = msg.sender;\r\n    }\r\n\r\n    struct User {\r\n        bool present;\r\n        string signature;\r\n        string mobileHash;\r\n    }\r\n\r\n    struct Verifier{\r\n        bool present;\r\n        bool verified;\r\n        string bank;\r\n        string publicKey;\r\n    }\r\n\r\n    address[] unverified;\r\n    //To store verifier data with key : publickey\r\n    mapping(address => Verifier) Verifiers;\r\n\r\n    //From User's unique ID -> Verifier\r\n    mapping(string => string) linkedVerifiers;\r\n\r\n    //For User Data\r\n    mapping(string => User) Users;\r\n\r\n    function getUnverifiedVerifiers() public view returns (address[] memory) {\r\n        require(msg.sender == owner, \"Unauthorized\");\r\n        return unverified;\r\n    }\r\n\r\n     function getVerifier(address verifierAddress) public view returns(bool){\r\n        return Verifiers[verifierAddress].present;\r\n    }\r\n\r\n\r\n    function getVerifierForUser(string memory _id) public view returns (string memory){\r\n        require(Users[_id].present == true, \"User does not exist\");\r\n        return (linkedVerifiers[_id]);\r\n    }\r\n\r\n    function addVerifier(string memory bankName, address verifierAddress, string memory publicKey) public {\r\n        require(msg.sender == owner,\"Unauthorized\");\r\n        require(Verifiers[verifierAddress].present == false, \"Verifier already exists\");\r\n        unverified.push(verifierAddress);\r\n        Verifiers[verifierAddress] = Verifier(true, true, bankName, publicKey);\r\n    }\r\n\r\n    function getPublicKey(address verifierAddress) public view returns(string memory){\r\n        return Verifiers[verifierAddress].publicKey;\r\n    }\r\n\r\n    function addUser(string memory _id,\r\n                    string memory _signature,\r\n                    string memory _mobileHash,\r\n                    address verifierAddress) public {\r\n        require(\r\n            Users[_id].present == false,\r\n            \"User already exist\"\r\n         );\r\n\r\n        Users[_id] = User(true, _signature, _mobileHash);\r\n        require(Verifiers[verifierAddress].present == true, \"Unauthorized verifier\");\r\n        linkedVerifiers[_id] = getPublicKey(verifierAddress);\r\n    }\r\n\r\n    function getUserSignature(string memory _id) public view returns (string memory) {\r\n        require(Users[_id].present == true, \"User does not exist\");\r\n\r\n        return(Users[_id].signature);\r\n    }\r\n\r\n    function getUserMobileHash(string memory _id) public view returns (string memory) {\r\n        require(Users[_id].present == true, \"User does not exist\");\r\n\r\n        return (Users[_id].mobileHash);\r\n    }\r\n}",
  "sourcePath": "F:\\sem 8\\Major\\E-KYC\\src\\contracts\\Kyc.sol",
  "compiler": {
    "name": "solc",
    "version": "0.5.16+commit.9c3226ce.Emscripten.clang"
  },
  "schemaVersion": "3.1.0",
  "updatedAt": "2020-04-30T04:44:45.766Z",
  "networkType": "ethereum",
  "devdoc": {
    "methods": {}
  },
  "userdoc": {
    "methods": {}
  }
}