{
  "contractName": "Kyc",
  "abi": [
    {
      "inputs": [],
      "payable": false,
      "stateMutability": "nonpayable",
      "type": "constructor"
    },
    {
      "constant": true,
      "inputs": [],
      "name": "getUnverifiedVerifiers",
      "outputs": [
        {
          "internalType": "address[]",
          "name": "",
          "type": "address[]"
        }
      ],
      "payable": false,
      "stateMutability": "view",
      "type": "function"
    },
    {
      "constant": false,
      "inputs": [
        {
          "internalType": "address",
          "name": "bankAddress",
          "type": "address"
        },
        {
          "internalType": "string",
          "name": "bankName",
          "type": "string"
        },
        {
          "internalType": "string",
          "name": "key",
          "type": "string"
        }
      ],
      "name": "pushVerifiers",
      "outputs": [
        {
          "internalType": "address[]",
          "name": "",
          "type": "address[]"
        }
      ],
      "payable": false,
      "stateMutability": "nonpayable",
      "type": "function"
    },
    {
      "constant": true,
      "inputs": [],
      "name": "getVerifiedVerifiers",
      "outputs": [
        {
          "internalType": "address[]",
          "name": "",
          "type": "address[]"
        }
      ],
      "payable": false,
      "stateMutability": "view",
      "type": "function"
    },
    {
      "constant": true,
      "inputs": [
        {
          "internalType": "address",
          "name": "verifierAddress",
          "type": "address"
        }
      ],
      "name": "getVerifier",
      "outputs": [
        {
          "internalType": "string",
          "name": "",
          "type": "string"
        }
      ],
      "payable": false,
      "stateMutability": "view",
      "type": "function"
    },
    {
      "constant": false,
      "inputs": [
        {
          "internalType": "address",
          "name": "verifierAddress",
          "type": "address"
        }
      ],
      "name": "verifyVerifier",
      "outputs": [
        {
          "internalType": "uint256",
          "name": "",
          "type": "uint256"
        }
      ],
      "payable": false,
      "stateMutability": "nonpayable",
      "type": "function"
    },
    {
      "constant": true,
      "inputs": [
        {
          "internalType": "string",
          "name": "_id",
          "type": "string"
        }
      ],
      "name": "getVerifierPublicKeyForUser",
      "outputs": [
        {
          "internalType": "string",
          "name": "",
          "type": "string"
        }
      ],
      "payable": false,
      "stateMutability": "view",
      "type": "function"
    },
    {
      "constant": false,
      "inputs": [
        {
          "internalType": "string",
          "name": "bankName",
          "type": "string"
        },
        {
          "internalType": "address",
          "name": "verifierAddress",
          "type": "address"
        },
        {
          "internalType": "string",
          "name": "publicKey",
          "type": "string"
        }
      ],
      "name": "addVerifier",
      "outputs": [],
      "payable": false,
      "stateMutability": "nonpayable",
      "type": "function"
    },
    {
      "constant": true,
      "inputs": [
        {
          "internalType": "address",
          "name": "verifierAddress",
          "type": "address"
        }
      ],
      "name": "getPublicKey",
      "outputs": [
        {
          "internalType": "string",
          "name": "",
          "type": "string"
        }
      ],
      "payable": false,
      "stateMutability": "view",
      "type": "function"
    },
    {
      "constant": false,
      "inputs": [
        {
          "internalType": "string",
          "name": "_id",
          "type": "string"
        },
        {
          "internalType": "string",
          "name": "_signature",
          "type": "string"
        },
        {
          "internalType": "string",
          "name": "_emailHash",
          "type": "string"
        },
        {
          "internalType": "address",
          "name": "verifierAddress",
          "type": "address"
        }
      ],
      "name": "addUser",
      "outputs": [],
      "payable": false,
      "stateMutability": "nonpayable",
      "type": "function"
    },
    {
      "constant": true,
      "inputs": [
        {
          "internalType": "string",
          "name": "_id",
          "type": "string"
        }
      ],
      "name": "getUserSignature",
      "outputs": [
        {
          "internalType": "string",
          "name": "",
          "type": "string"
        }
      ],
      "payable": false,
      "stateMutability": "view",
      "type": "function"
    },
    {
      "constant": true,
      "inputs": [
        {
          "internalType": "string",
          "name": "_id",
          "type": "string"
        }
      ],
      "name": "getUserEmailHash",
      "outputs": [
        {
          "internalType": "string",
          "name": "",
          "type": "string"
        }
      ],
      "payable": false,
      "stateMutability": "view",
      "type": "function"
    },
    {
      "constant": true,
      "inputs": [
        {
          "internalType": "address[]",
          "name": "unverifiedAddresses",
          "type": "address[]"
        },
        {
          "internalType": "address",
          "name": "current",
          "type": "address"
        }
      ],
      "name": "present",
      "outputs": [
        {
          "internalType": "bool",
          "name": "",
          "type": "bool"
        }
      ],
      "payable": false,
      "stateMutability": "view",
      "type": "function"
    },
    {
      "constant": true,
      "inputs": [
        {
          "internalType": "address",
          "name": "currentAddress",
          "type": "address"
        }
      ],
      "name": "identifyAddress",
      "outputs": [
        {
          "internalType": "uint256",
          "name": "",
          "type": "uint256"
        }
      ],
      "payable": false,
      "stateMutability": "view",
      "type": "function"
    }
  ],
  "bytecode": "0x608060405234801561001057600080fd5b50336000806101000a81548173ffffffffffffffffffffffffffffffffffffffff021916908373ffffffffffffffffffffffffffffffffffffffff1602179055506125e9806100606000396000f3fe608060405234801561001057600080fd5b50600436106100cf5760003560e01c80639bf004b51161008c578063aff6f5f711610066578063aff6f5f7146108fe578063b48ff0f1146109ee578063c9d49cc014610bf7578063ceee2d4a14610d2b576100cf565b80639bf004b5146105ab5780639f9615b614610603578063ac46c47714610737576100cf565b8063059ce95d146100d457806315d77b761461019157806380534100146102c5578063857cdbb81461031d5780639111dab5146103da578063999a05c91461054c575b600080fd5b610116600480360360208110156100ea57600080fd5b81019080803573ffffffffffffffffffffffffffffffffffffffff169060200190929190505050610d8a565b6040518080602001828103825283818151815260200191508051906020019080838360005b8381101561015657808201518184015260208101905061013b565b50505050905090810190601f1680156101835780820380516001836020036101000a031916815260200191505b509250505060405180910390f35b61024a600480360360208110156101a757600080fd5b81019080803590602001906401000000008111156101c457600080fd5b8201836020820111156101d657600080fd5b803590602001918460018302840111640100000000831117156101f857600080fd5b91908080601f016020809104026020016040519081016040528093929190818152602001838380828437600081840152601f19601f820116905080830192505050505050509192919290505050610e6e565b6040518080602001828103825283818151815260200191508051906020019080838360005b8381101561028a57808201518184015260208101905061026f565b50505050905090810190601f1680156102b75780820380516001836020036101000a031916815260200191505b509250505060405180910390f35b610307600480360360208110156102db57600080fd5b81019080803573ffffffffffffffffffffffffffffffffffffffff16906020019092919050505061106c565b6040518082815260200191505060405180910390f35b61035f6004803603602081101561033357600080fd5b81019080803573ffffffffffffffffffffffffffffffffffffffff1690602001909291905050506111d9565b6040518080602001828103825283818151815260200191508051906020019080838360005b8381101561039f578082015181840152602081019050610384565b50505050905090810190601f1680156103cc5780820380516001836020036101000a031916815260200191505b509250505060405180910390f35b61054a600480360360608110156103f057600080fd5b810190808035906020019064010000000081111561040d57600080fd5b82018360208201111561041f57600080fd5b8035906020019184600183028401116401000000008311171561044157600080fd5b91908080601f016020809104026020016040519081016040528093929190818152602001838380828437600081840152601f19601f820116905080830192505050505050509192919290803573ffffffffffffffffffffffffffffffffffffffff169060200190929190803590602001906401000000008111156104c457600080fd5b8201836020820111156104d657600080fd5b803590602001918460018302840111640100000000831117156104f857600080fd5b91908080601f016020809104026020016040519081016040528093929190818152602001838380828437600081840152601f19601f8201169050808301925050505050505091929192905050506112bd565b005b6105546114d4565b6040518080602001828103825283818151815260200191508051906020019060200280838360005b8381101561059757808201518184015260208101905061057c565b505050509050019250505060405180910390f35b6105ed600480360360208110156105c157600080fd5b81019080803573ffffffffffffffffffffffffffffffffffffffff169060200190929190505050611624565b6040518082815260200191505060405180910390f35b6106bc6004803603602081101561061957600080fd5b810190808035906020019064010000000081111561063657600080fd5b82018360208201111561064857600080fd5b8035906020019184600183028401116401000000008311171561066a57600080fd5b91908080601f016020809104026020016040519081016040528093929190818152602001838380828437600081840152601f19601f820116905080830192505050505050509192919290505050611932565b6040518080602001828103825283818151815260200191508051906020019080838360005b838110156106fc5780820151818401526020810190506106e1565b50505050905090810190601f1680156107295780820380516001836020036101000a031916815260200191505b509250505060405180910390f35b6108a76004803603606081101561074d57600080fd5b81019080803573ffffffffffffffffffffffffffffffffffffffff1690602001909291908035906020019064010000000081111561078a57600080fd5b82018360208201111561079c57600080fd5b803590602001918460018302840111640100000000831117156107be57600080fd5b91908080601f016020809104026020016040519081016040528093929190818152602001838380828437600081840152601f19601f8201169050808301925050505050505091929192908035906020019064010000000081111561082157600080fd5b82018360208201111561083357600080fd5b8035906020019184600183028401116401000000008311171561085557600080fd5b91908080601f016020809104026020016040519081016040528093929190818152602001838380828437600081840152601f19601f820116905080830192505050505050509192919290505050611b33565b6040518080602001828103825283818151815260200191508051906020019060200280838360005b838110156108ea5780820151818401526020810190506108cf565b505050509050019250505060405180910390f35b6109d46004803603604081101561091457600080fd5b810190808035906020019064010000000081111561093157600080fd5b82018360208201111561094357600080fd5b8035906020019184602083028401116401000000008311171561096557600080fd5b919080806020026020016040519081016040528093929190818152602001838360200280828437600081840152601f19601f820116905080830192505050505050509192919290803573ffffffffffffffffffffffffffffffffffffffff169060200190929190505050611d47565b604051808215151515815260200191505060405180910390f35b610bf560048036036080811015610a0457600080fd5b8101908080359060200190640100000000811115610a2157600080fd5b820183602082011115610a3357600080fd5b80359060200191846001830284011164010000000083111715610a5557600080fd5b91908080601f016020809104026020016040519081016040528093929190818152602001838380828437600081840152601f19601f82011690508083019250505050505050919291929080359060200190640100000000811115610ab857600080fd5b820183602082011115610aca57600080fd5b80359060200191846001830284011164010000000083111715610aec57600080fd5b91908080601f016020809104026020016040519081016040528093929190818152602001838380828437600081840152601f19601f82011690508083019250505050505050919291929080359060200190640100000000811115610b4f57600080fd5b820183602082011115610b6157600080fd5b80359060200191846001830284011164010000000083111715610b8357600080fd5b91908080601f016020809104026020016040519081016040528093929190818152602001838380828437600081840152601f19601f820116905080830192505050505050509192919290803573ffffffffffffffffffffffffffffffffffffffff169060200190929190505050611de6565b005b610cb060048036036020811015610c0d57600080fd5b8101908080359060200190640100000000811115610c2a57600080fd5b820183602082011115610c3c57600080fd5b80359060200191846001830284011164010000000083111715610c5e57600080fd5b91908080601f016020809104026020016040519081016040528093929190818152602001838380828437600081840152601f19601f820116905080830192505050505050509192919290505050612112565b6040518080602001828103825283818151815260200191508051906020019080838360005b83811015610cf0578082015181840152602081019050610cd5565b50505050905090810190601f168015610d1d5780820380516001836020036101000a031916815260200191505b509250505060405180910390f35b610d33612313565b6040518080602001828103825283818151815260200191508051906020019060200280838360005b83811015610d76578082015181840152602081019050610d5b565b505050509050019250505060405180910390f35b6060600360008373ffffffffffffffffffffffffffffffffffffffff1673ffffffffffffffffffffffffffffffffffffffff1681526020019081526020016000206001018054600181600116156101000203166002900480601f016020809104026020016040519081016040528092919081815260200182805460018160011615610100020316600290048015610e625780601f10610e3757610100808354040283529160200191610e62565b820191906000526020600020905b815481529060010190602001808311610e4557829003601f168201915b50505050509050919050565b6060600115156005836040518082805190602001908083835b60208310610eaa5780518252602082019150602081019050602083039250610e87565b6001836020036101000a038019825116818451168082178552505050505050905001915050908152602001604051809103902060000160009054906101000a900460ff16151514610f63576040517f08c379a00000000000000000000000000000000000000000000000000000000081526004018080602001828103825260138152602001807f5573657220646f6573206e6f742065786973740000000000000000000000000081525060200191505060405180910390fd5b6004826040518082805190602001908083835b60208310610f995780518252602082019150602081019050602083039250610f76565b6001836020036101000a03801982511681845116808217855250505050505090500191505090815260200160405180910390208054600181600116156101000203166002900480601f0160208091040260200160405190810160405280929190818152602001828054600181600116156101000203166002900480156110605780601f1061103557610100808354040283529160200191611060565b820191906000526020600020905b81548152906001019060200180831161104357829003601f168201915b50505050509050919050565b60008060009054906101000a900473ffffffffffffffffffffffffffffffffffffffff1673ffffffffffffffffffffffffffffffffffffffff168273ffffffffffffffffffffffffffffffffffffffff1614156110cc57600190506111d4565b61115c600180548060200260200160405190810160405280929190818152602001828054801561115157602002820191906000526020600020905b8160009054906101000a900473ffffffffffffffffffffffffffffffffffffffff1673ffffffffffffffffffffffffffffffffffffffff1681526020019060010190808311611107575b505050505083611d47565b1561116a57600390506111d4565b60011515600360008473ffffffffffffffffffffffffffffffffffffffff1673ffffffffffffffffffffffffffffffffffffffff16815260200190815260200160002060000160009054906101000a900460ff16151514156111cf57600290506111d4565b600490505b919050565b6060600360008373ffffffffffffffffffffffffffffffffffffffff1673ffffffffffffffffffffffffffffffffffffffff1681526020019081526020016000206002018054600181600116156101000203166002900480601f0160208091040260200160405190810160405280929190818152602001828054600181600116156101000203166002900480156112b15780601f10611286576101008083540402835291602001916112b1565b820191906000526020600020905b81548152906001019060200180831161129457829003601f168201915b50505050509050919050565b60001515600360008473ffffffffffffffffffffffffffffffffffffffff1673ffffffffffffffffffffffffffffffffffffffff16815260200190815260200160002060000160009054906101000a900460ff16151514611386576040517f08c379a00000000000000000000000000000000000000000000000000000000081526004018080602001828103825260178152602001807f566572696669657220616c72656164792065786973747300000000000000000081525060200191505060405180910390fd5b60018290806001815401808255809150509060018203906000526020600020016000909192909190916101000a81548173ffffffffffffffffffffffffffffffffffffffff021916908373ffffffffffffffffffffffffffffffffffffffff16021790555050604051806080016040528060011515815260200160001515815260200184815260200182815250600360008473ffffffffffffffffffffffffffffffffffffffff1673ffffffffffffffffffffffffffffffffffffffff16815260200190815260200160002060008201518160000160006101000a81548160ff02191690831515021790555060208201518160000160016101000a81548160ff02191690831515021790555060408201518160010190805190602001906114ae929190612463565b5060608201518160020190805190602001906114cb929190612463565b50905050505050565b60606000809054906101000a900473ffffffffffffffffffffffffffffffffffffffff1673ffffffffffffffffffffffffffffffffffffffff163373ffffffffffffffffffffffffffffffffffffffff1614611598576040517f08c379a000000000000000000000000000000000000000000000000000000000815260040180806020018281038252600c8152602001807f556e617574686f72697a6564000000000000000000000000000000000000000081525060200191505060405180910390fd5b600280548060200260200160405190810160405280929190818152602001828054801561161a57602002820191906000526020600020905b8160009054906101000a900473ffffffffffffffffffffffffffffffffffffffff1673ffffffffffffffffffffffffffffffffffffffff16815260200190600101908083116115d0575b5050505050905090565b60008060009054906101000a900473ffffffffffffffffffffffffffffffffffffffff1673ffffffffffffffffffffffffffffffffffffffff163373ffffffffffffffffffffffffffffffffffffffff16146116e8576040517f08c379a000000000000000000000000000000000000000000000000000000000815260040180806020018281038252600c8152602001807f556e617574686f72697a6564000000000000000000000000000000000000000081525060200191505060405180910390fd5b6001600360008473ffffffffffffffffffffffffffffffffffffffff1673ffffffffffffffffffffffffffffffffffffffff16815260200190815260200160002060000160016101000a81548160ff02191690831515021790555060008090505b600180549050811015611927578273ffffffffffffffffffffffffffffffffffffffff166001828154811061177a57fe5b9060005260206000200160009054906101000a900473ffffffffffffffffffffffffffffffffffffffff1673ffffffffffffffffffffffffffffffffffffffff16141561191a5760028390806001815401808255809150509060018203906000526020600020016000909192909190916101000a81548173ffffffffffffffffffffffffffffffffffffffff021916908373ffffffffffffffffffffffffffffffffffffffff160217905550506001808080549050038154811061183a57fe5b9060005260206000200160009054906101000a900473ffffffffffffffffffffffffffffffffffffffff166001828154811061187257fe5b9060005260206000200160006101000a81548173ffffffffffffffffffffffffffffffffffffffff021916908373ffffffffffffffffffffffffffffffffffffffff160217905550600180808054905003815481106118cd57fe5b9060005260206000200160006101000a81549073ffffffffffffffffffffffffffffffffffffffff0219169055600180548091906001900361190f91906124e3565b50600191505061192d565b8080600101915050611749565b50600090505b919050565b6060600115156005836040518082805190602001908083835b6020831061196e578051825260208201915060208101905060208303925061194b565b6001836020036101000a038019825116818451168082178552505050505050905001915050908152602001604051809103902060000160009054906101000a900460ff16151514611a27576040517f08c379a00000000000000000000000000000000000000000000000000000000081526004018080602001828103825260138152602001807f5573657220646f6573206e6f742065786973740000000000000000000000000081525060200191505060405180910390fd5b6005826040518082805190602001908083835b60208310611a5d5780518252602082019150602081019050602083039250611a3a565b6001836020036101000a03801982511681845116808217855250505050505090500191505090815260200160405180910390206001018054600181600116156101000203166002900480601f016020809104026020016040519081016040528092919081815260200182805460018160011615610100020316600290048015611b275780601f10611afc57610100808354040283529160200191611b27565b820191906000526020600020905b815481529060010190602001808311611b0a57829003601f168201915b50505050509050919050565b60606000809054906101000a900473ffffffffffffffffffffffffffffffffffffffff1673ffffffffffffffffffffffffffffffffffffffff163373ffffffffffffffffffffffffffffffffffffffff1614611bf7576040517f08c379a000000000000000000000000000000000000000000000000000000000815260040180806020018281038252600c8152602001807f556e617574686f72697a6564000000000000000000000000000000000000000081525060200191505060405180910390fd5b604051806080016040528060011515815260200160011515815260200184815260200183815250600360008673ffffffffffffffffffffffffffffffffffffffff1673ffffffffffffffffffffffffffffffffffffffff16815260200190815260200160002060008201518160000160006101000a81548160ff02191690831515021790555060208201518160000160016101000a81548160ff0219169083151502179055506040820151816001019080519060200190611cb9929190612463565b506060820151816002019080519060200190611cd6929190612463565b5090505060028490806001815401808255809150509060018203906000526020600020016000909192909190916101000a81548173ffffffffffffffffffffffffffffffffffffffff021916908373ffffffffffffffffffffffffffffffffffffffff160217905550509392505050565b600080600090505b8351811015611dda578273ffffffffffffffffffffffffffffffffffffffff1660018281548110611d7c57fe5b9060005260206000200160009054906101000a900473ffffffffffffffffffffffffffffffffffffffff1673ffffffffffffffffffffffffffffffffffffffff161415611dcd576001915050611de0565b8080600101915050611d4f565b50600090505b92915050565b600015156005856040518082805190602001908083835b60208310611e205780518252602082019150602081019050602083039250611dfd565b6001836020036101000a038019825116818451168082178552505050505050905001915050908152602001604051809103902060000160009054906101000a900460ff16151514611ed9576040517f08c379a00000000000000000000000000000000000000000000000000000000081526004018080602001828103825260128152602001807f5573657220616c7265616479206578697374000000000000000000000000000081525060200191505060405180910390fd5b6040518060600160405280600115158152602001848152602001838152506005856040518082805190602001908083835b60208310611f2d5780518252602082019150602081019050602083039250611f0a565b6001836020036101000a038019825116818451168082178552505050505050905001915050908152602001604051809103902060008201518160000160006101000a81548160ff0219169083151502179055506020820151816001019080519060200190611f9c929190612463565b506040820151816002019080519060200190611fb9929190612463565b5090505060011515600360008373ffffffffffffffffffffffffffffffffffffffff1673ffffffffffffffffffffffffffffffffffffffff16815260200190815260200160002060000160009054906101000a900460ff16151514612086576040517f08c379a00000000000000000000000000000000000000000000000000000000081526004018080602001828103825260158152602001807f556e617574686f72697a6564207665726966696572000000000000000000000081525060200191505060405180910390fd5b61208f816111d9565b6004856040518082805190602001908083835b602083106120c557805182526020820191506020810190506020830392506120a2565b6001836020036101000a0380198251168184511680821785525050505050509050019150509081526020016040518091039020908051906020019061210b92919061250f565b5050505050565b6060600115156005836040518082805190602001908083835b6020831061214e578051825260208201915060208101905060208303925061212b565b6001836020036101000a038019825116818451168082178552505050505050905001915050908152602001604051809103902060000160009054906101000a900460ff16151514612207576040517f08c379a00000000000000000000000000000000000000000000000000000000081526004018080602001828103825260138152602001807f5573657220646f6573206e6f742065786973740000000000000000000000000081525060200191505060405180910390fd5b6005826040518082805190602001908083835b6020831061223d578051825260208201915060208101905060208303925061221a565b6001836020036101000a03801982511681845116808217855250505050505090500191505090815260200160405180910390206002018054600181600116156101000203166002900480601f0160208091040260200160405190810160405280929190818152602001828054600181600116156101000203166002900480156123075780601f106122dc57610100808354040283529160200191612307565b820191906000526020600020905b8154815290600101906020018083116122ea57829003601f168201915b50505050509050919050565b60606000809054906101000a900473ffffffffffffffffffffffffffffffffffffffff1673ffffffffffffffffffffffffffffffffffffffff163373ffffffffffffffffffffffffffffffffffffffff16146123d7576040517f08c379a000000000000000000000000000000000000000000000000000000000815260040180806020018281038252600c8152602001807f556e617574686f72697a6564000000000000000000000000000000000000000081525060200191505060405180910390fd5b600180548060200260200160405190810160405280929190818152602001828054801561245957602002820191906000526020600020905b8160009054906101000a900473ffffffffffffffffffffffffffffffffffffffff1673ffffffffffffffffffffffffffffffffffffffff168152602001906001019080831161240f575b5050505050905090565b828054600181600116156101000203166002900490600052602060002090601f016020900481019282601f106124a457805160ff19168380011785556124d2565b828001600101855582156124d2579182015b828111156124d15782518255916020019190600101906124b6565b5b5090506124df919061258f565b5090565b81548183558181111561250a57818360005260206000209182019101612509919061258f565b5b505050565b828054600181600116156101000203166002900490600052602060002090601f016020900481019282601f1061255057805160ff191683800117855561257e565b8280016001018555821561257e579182015b8281111561257d578251825591602001919060010190612562565b5b50905061258b919061258f565b5090565b6125b191905b808211156125ad576000816000905550600101612595565b5090565b9056fea265627a7a72315820f542d499af71a2291be1922a070414f44777f5c1dae9a0e157230c5e735d7c6f64736f6c63430005100032",
  "source": "pragma solidity >=0.4.21 <0.6.0;\r\n\r\ncontract Kyc {\r\n\r\n    address owner;\r\n\r\n    constructor() public {\r\n        owner = msg.sender;\r\n    }\r\n\r\n    struct User {\r\n        bool present;\r\n        string signature;\r\n        string emailHash;\r\n    }\r\n\r\n    struct Verifier{\r\n        bool present;\r\n        bool verified;\r\n        string bank;\r\n        string publicKey;\r\n    }\r\n\r\n    address[] unverified;\r\n    address[] verified;\r\n\r\n    //To store verifier data with key : publickey\r\n    mapping(address => Verifier) Verifiers;\r\n\r\n    //From User's unique ID -> Verifier address\r\n    mapping(string => string) linkedVerifiers;\r\n\r\n    //For User Data\r\n    mapping(string => User) Users;\r\n\r\n    function getUnverifiedVerifiers() public view returns (address[] memory) {\r\n        require(msg.sender == owner, \"Unauthorized\");\r\n        return unverified;\r\n    }\r\n    \r\n    function pushVerifiers(address bankAddress, string memory bankName, string memory key) public returns (address[] memory){\r\n        require(msg.sender == owner, \"Unauthorized\");\r\n        Verifiers[bankAddress] = Verifier(true, true, bankName, key);\r\n        verified.push(bankAddress);\r\n    }\r\n\r\n    function getVerifiedVerifiers() public view returns (address[] memory){\r\n        require(msg.sender == owner, \"Unauthorized\");\r\n        return verified;\r\n    }\r\n\r\n     function getVerifier(address verifierAddress) public view returns(string memory){\r\n        return Verifiers[verifierAddress].bank;\r\n    }\r\n\r\n    function verifyVerifier(address verifierAddress) public returns(uint){\r\n        require(msg.sender == owner, \"Unauthorized\");\r\n        Verifiers[verifierAddress].verified = true;\r\n        for(uint i = 0; i<unverified.length;i++){\r\n            if(unverified[i] == verifierAddress) {\r\n\r\n                verified.push(verifierAddress);\r\n                \r\n                unverified[i] = unverified[unverified.length - 1];\r\n                delete unverified[unverified.length - 1];\r\n                unverified.length--;\r\n                return 1;\r\n            }\r\n        }\r\n        return 0;\r\n    }\r\n\r\n    function getVerifierPublicKeyForUser(string memory _id) public view returns (string memory){\r\n         require(Users[_id].present == true, \"User does not exist\");\r\n        return (linkedVerifiers[_id]);\r\n    }\r\n\r\n    function addVerifier(string memory bankName, address verifierAddress, string memory publicKey) public {\r\n        // require(msg.sender == owner,\"Unauthorized\");\r\n        require(Verifiers[verifierAddress].present == false, \"Verifier already exists\");\r\n        unverified.push(verifierAddress);\r\n        Verifiers[verifierAddress] = Verifier(true, false, bankName, publicKey);\r\n    }\r\n\r\n    function getPublicKey(address verifierAddress) public view returns(string memory){\r\n        return Verifiers[verifierAddress].publicKey;\r\n    }\r\n\r\n    function addUser(string memory _id,\r\n                    string memory _signature,\r\n                    string memory _emailHash,\r\n                    address verifierAddress) public {\r\n        require(\r\n            Users[_id].present == false,\r\n            \"User already exist\"\r\n         );\r\n\r\n        Users[_id] = User(true, _signature, _emailHash);\r\n        require(Verifiers[verifierAddress].present == true, \"Unauthorized verifier\");\r\n        linkedVerifiers[_id] = getPublicKey(verifierAddress);\r\n    }\r\n\r\n    function getUserSignature(string memory _id) public view returns (string memory) {\r\n        require(Users[_id].present == true, \"User does not exist\");\r\n\r\n        return(Users[_id].signature);\r\n    }\r\n\r\n    function getUserEmailHash(string memory _id) public view returns (string memory) {\r\n        require(Users[_id].present == true, \"User does not exist\");\r\n\r\n        return (Users[_id].emailHash);\r\n    }\r\n\r\n    function present(address[] memory unverifiedAddresses,address current) public view returns (bool){\r\n        for(uint i = 0; i<unverifiedAddresses.length;i++){\r\n            if(unverified[i] == current) {\r\n                return true;\r\n            }\r\n        }\r\n        return false;\r\n    }\r\n\r\n    function identifyAddress(address currentAddress) public view returns (uint) {\r\n        if(currentAddress == owner)\r\n        {\r\n            return 1;\r\n        }\r\n        else if(present(unverified,currentAddress))\r\n        {\r\n            return 3;\r\n        }\r\n        else if(Verifiers[currentAddress].present == true)\r\n        {\r\n            return 2;\r\n        }\r\n        return 4;\r\n    }\r\n\r\n}\r\n",
  "sourcePath": "C:\\Users\\laptop1\\Desktop\\Major\\E-KYC\\src\\contracts\\Kyc.sol",
  "compiler": {
    "name": "solc",
    "version": "0.5.16+commit.9c3226ce.Emscripten.clang"
  },
  "schemaVersion": "3.1.0",
  "updatedAt": "2020-05-18T14:53:54.525Z",
  "networkType": "ethereum",
  "devdoc": {
    "methods": {}
  },
  "userdoc": {
    "methods": {}
  }
}